:1000000000000000000000000000000000000000F0
:100010000000000000000000000000003F000000A1
:1000200000000000000000000000000000000000D0
:1000300000000000000000000000000000003C384C
:10004000393333333333323839323C2626262626A9
:1000500004373435350B0B0404062500000100007D
:100060003F3E3C00000000000000000000000000D7
:100070000000000000000000000000000000000080
:100080001F32323A0B323A34383E2A38182A343288
:10009000322F343A30302A30303C2A30302A3A304D
:1000A0003C2A303C2A340B1F322F322F322D322F74
:1000B000322F322F322F2D34383C2A34383C2A2A22
:1000C0000000000000000000000000000000000030
:1000D0000000000000000000000000000000000020
:1000E0000000000000000000000000000000000010
:1000F000000000000000242424072E223F2A0401CF
:1001000038383832343A0B32322D3A0B322F322F04
:10011000322F3E2A18322F083E2A0B322F08180C95
:100120000B3E2A3A083D2A1808182A3A1C322F0B8F
:10013000322F322F2A3A0C0B3D2B0B3C0B0B3C0B76
:100140000B3C0B0B2B0B3D0B0B180832322D2724CD
:10015000272B2724272B2724083E2B27242724322C
:1001600000000000000000161634013F3F003F3F32
:100170003F00013E3202383F3619363A2E3A00012E
:10018000003A322F0E322F2D322D3E2A322D322FB1
:10019000322D3A083C3B1808180C3E1832322F32E8
:1001A0002D083C2A0B3D2A0B3D2A0B18322F251C0B
:1001B000322F322D083C2A0B3D2A0B3D2A0B182AE0
:1001C000322F322D08182A322D2521083E2B2521C9
:1001D00025210B322D25210F322D320F32322D32B7
:1001E0000F32322D2521322D2521322D2D000000F8
:1001F00000000000000203003F02033C3F3632389B
:100200003A3C3A18322D3C2A0803180803091832E0
:100210002F322D322D322D3C2A322D08013E2A322A
:100220002D2A322F322D322D322D3C320B3E2D2AEB
:10023000322F322D2D3A3C3A18322F322F322D08E0
:10024000322D322D322D3C320B3E2D2A322D3E2FB7
:10025000322D322F322D0B322F2D322F322F322DC5
:10026000322D0B2F000000000000000000000000F5
:10027000000000001B26361B360A26343F08343F98
:1002800008183208182F08183208033C08033D18D4
:100290002F0832323A322A322A322A322A322A2A93
:1002A000322A2D00180E322F082D08221F08221F77
:1002B00008221F322F08221F08221F08221F3E2259
:1002C0001F3A08010B1B00323A32083E3232322B01
:1002D000322B0C180832323218322B322B081C32D7
:1002E00032321B0B322B322B380B3E32251C322F75
:1002F0000B322D322D322D0000343207320D322FC9
:10030000322D3C2D322F322D18322F322D322D3EF0
:100310003A18322D322F08322D322D3C2A102A3233
:10032000251C322D3C2D322D181808393C38183236
:100330002D0818322D3C2A322D2A083E2A322F252C
:100340001C082D322D082B322D3A1818183A18098E
:100350001818322D3E2B322D322D322D08322D32EF
:100360002D3C32322D2B322F322F000000000000A6
:1003700000000000000000000000000606383534D0
:10038000322D081A18183A1809183A1A18083E2A6D
:10039000322D083E2A322D081A322D180A02381A38
:1003A000322D322D020A3E2A322F322D3A18322DAA
:1003B0003C2A322D2A083E32251C0000322D322BD9
:1003C000180C180C18083E2B322F322D10102B0849
:1003D0003E32251E3A0B180B180B180B1818323228
:1003E0002B0C3C2B38083E2B0C38083E2B39321096
:1003F000102B3932000000000000003F020202080A
:10040000322D3E2A322D322F083C2D18322F3C2A15
:1004100008181C32251E322F1C1C1C102A32322FA9
:10042000083C2D18322D322F3E2A251E322F100C5B
:100430003E2A102A251F0818081C0818081C3232EA
:100440002F0C3C2B180C18322D1C0B322D2B10109E
:10045000102B32322F0C3C2B180C180C322D2B1079
:1004600010102B32322D0801180818081818322DD8
:1004700018322F322F2F0000000A0A12320F0F38C5
:10048000322D303C3A182A322D322A2A322D272F8B
:10049000322F18302A272F3219343434303A0832A8
:1004A0000832083C083008302C322D3E2A322D32DA
:1004B0002F322D322B081808393908182A322B2AE6
:1004C000322D322B302B30250F2F3A1818181818D0
:1004D000183A1832322D081B18083E2B322D322DB7
:1004E0000B0B3F2B251C1808381018083E2B251C19
:1004F000251F082D0000000000102F383F1011307C
:100500000B183A18390C3C3238320C0132393E3271
:100510002A0101010100322D3E2A322D322F322DC7
:100520000B322F3C2A322F0B182F322A3C2A322B27
:100530003C2A251D2504322A3C322521322D393210
:10054000250A322A3C322521322D3932322D322DE4
:10055000083E2B251F081808322D322F3E2D083259
:10056000251C383838273C32251D000000000000CB
:10057000000000000000001638120013361B36146D
:1005800000320F323E122E0025123E2A320F323E2A
:10059000122E322D3E2A322D322D08033E2A081803
:1005A000322D3E2A322D322D322D080B18081C32E6
:1005B0002F251C18322A10080B3E2A32252008321B
:1005C0002F2520080B180C2D251F3A18321D1D0849
:1005D00039180B1832081C08381C102B3225120849
:1005E00025003C2F3A103C323215150D3218322DB1
:1005F0000838003E2B322D2B1D3B3902003F0000F6
:10060000251F321D1D3225120825003C2F083918E0
:100610000B183208380C3E2A0C08383E2A102A32B1
:10062000103C323215150D3218322D0838003E2A92
:10063000322D2A32322D2520320D32322D2A322F00
:10064000322F321F320918180B1F322F180B1A3293
:100650002A25202D322F321F3225073E2F0918322E
:100660000F18320B1F322F320F18320B1A322A2B6F
:10067000000004040015000A17170A0015153B1D99
:10068000322D180B18322B0B3E2A102A322B0B3C22
:100690002A0B18180B18183E08033E2B081B322B88
:1006A0001B0B03383C0B033D18322B18080B3E2B59
:1006B000080B0B180B033E2A08322D10382A081895
:1006C0002A08033E2B080118322B182A083808186C
:1006D000322F2A00003A0B18302B3A3032383C2B9C
:1006E000102B3B322C2D0000000000000000000009
:1006F0000000000000000000003C0C0100023E3F32
:100700000B1A09182A322F0B1A0918322D32081F1A
:10071000081F1D1D3218322D3E2A322D322D32086F
:100720001D081D323A18322D3E2A322D322D08383E
:1007300018322D25120825003C2B08322F321515B2
:1007400032102A323218251D08322D0B1B09182BA6
:10075000322F0B1B0918322D322D32081F081F3281
:100760003A181808322F321D0D1D0D1832251208A7
:1007700025003C2B2B00001E0A041E00000A150455
:100780001A180B1818320D32322D322D08322D3234
:100790002F322C320C321808081808322D1008019C
:1007A0003E2A322D080A3E2A082D001A0B18183A44
:1007B0001B180B322F322F3E2A080A3E2B322D08EF
:1007C000380B3E2B132D081B080B3E2D322D0838FD
:1007D000083E2D080B3E2D322D08321C0808183219
:1007E0001008013E2B322D3E2D2A322D0838083EAE
:1007F0002B083E2D0B32251D003F3F3A3A00383B77
:10080000322F322D0818322F322D08182D322A257A
:100810001F0B182A322A252008322D322F3E2D2573
:10082000200B18321D32251208321F3209250A3CCE
:100830002F322C32153C2B093805323E2A322D2A14
:100840003225202D251208321F3209250A3C2F326D
:10085000322B18251208321F3209250A3C2F322B61
:1008600038083C32322D2520320D32322D0B180B38
:1008700018320C102B32323C3B1D0021382126153A
:100880000B1818322F322F250F322F083E2A343200
:100890000B1F0F380F180B1F0F380F180B1F0F38B7
:1008A0000F38083C2A0B1F0F380F343238083C2A07
:1008B0000838083C2A25232D0B1F2523322F3E2DD7
:1008C0000B1F09182F3232323223000000023C3D48
:1008D0003C3C3339262626262604373403043215B9
:1008E0000A00000000003E000000000000000000C0
:1008F000000000001D1D16380200003F0210130109
:100900003A083E3225230B083D2A252308322D2D97
:100910003E2A25232D25232D25062522250C3C2A7C
:10092000322D083E2A25222A2522320F323C2A3F28
:100930002A25222A25222D25232D3A083E2B252340
:1009400025083C2B25083E2B321F0F323C2B322D25
:1009500025230B322F2D25232D25232D250832006D
:100960001B0F1B0B38323A0B323A0B322F000000B0
:1009700000000000000000000003323C003D003F8A
:10098000322F322D322F083E2A250A32250B3232E1
:100990002D3A08093E2A0832322D322D3E2D3232B0
:1009A0002D3A08093E2D323A0818320000000000A6
:1009B0000000000000000000000000000000000037
:1009C0000000000000000000000000000000000027
:1009D0000000000000000000000000000000000017
:1009E0000000000000000000000000000000000007
:1009F00000000000000000000000000000001536AC
:100A000000000000000000000000000000000000E6
:100A100000000000000000000000000000000000D6
:100A200000000000000000000000000000000000C6
:100A300000000000000000000000000000000000B6
:100A400000000000000000000000000000000000A6
:100A50000000000000000000000000000000000096
:100A60000000000000000000000000000000000086
:100A70000000000000000000000000000000000076
:100A80000000000000000000000000000000000066
:100A90000000000000000000000000000000000056
:100AA0000000000000000000000000000000000046
:100AB0000000000000000000000000000000000036
:100AC0000000000000000000000000000000000026
:100AD0000000000000000000000000000000000016
:100AE0000000000000000000000000000000000006
:100AF00000000000000000000000000000000000F6
:100B000000000000000000000000000000000000E5
:100B100000000000000000000000000000000000D5
:100B200000000000000000000000000000000000C5
:100B300000000000000000000000000000000000B5
:100B400000000000000000000000000000000000A5
:100B50000000000000000000000000000000000095
:100B60000000000000000000000000000000000085
:100B70000000000000000000000000000000000075
:100B80003A1818183A343818083E32320B1F3234EB
:100B900032083E3234033808343E320B383C2A34B3
:100BA000031B0838033C0B183F3C32383C2F3C18E1
:100BB0003F3D2B383C2B3D2F383C2F3D2B383F2BD6
:100BC00032003E18322B322F2D3E033C08033D18D5
:100BD000322B322F2D322F323E1C10382B10383250
:100BE0002B0818080118322F2D322F320C3A3232CE
:100BF00032000008300A3F000A123030083F31034B
:100C00003A08010B1A3832102A322D2F3A183218AE
:100C1000181818080318183032003B083E2A34030D
:100C2000343E122E343234083E32083E2B34383CE7
:100C30002A383C2A383C2A2B3A082B3A082B3A0807
:100C40002B08323B083E32342B103808033E2B343D
:100C500032343200000000000000000000000000FC
:100C60000000000000000000000000000000000084
:100C7000000000000000000000000000000014322E
:100C80000B183B1832102A3B183B08180C01383956
:100C90003C0C0138393D2A0C01323C32322C2A00FE
:100CA0003A0E322A122E180C3C32322C2A18320CF0
:100CB000323C32322C2A180838322A08030B2F18FB
:100CC0001808390B3C2B102B0B323A083C2B322ADC
:100CD000322F180B18083938180838180801322F25
:100CE000102B3238183B2B322B2C322B2D322B323F
:100CF0002D2D0000000000003F39003F3C00003F68
:100D0000003A0E1812320C323C2E322F322D2A3A73
:100D100008322F08322D322F2C3838012F322F086D
:100D20001832322A0818081832322A0818081832DD
:100D3000322A322D0B3E2B322A08180818322B3853
:100D40003E32251C0818081839323B1032080B3D7A
:100D5000380B0118323B0838083E320838083A325E
:100D60003A083C08183D18083C08183D18320000A5
:100D70000000000000000000013F3F3839383432E5
:100D80003A18322D3C32322A3C2D093818322D3295
:100D90002A3C2D09081832390B3D2A0B320B3D38FD
:100DA0000B3218320C3C2A38083E2A102A0C1A3210
:100DB0002E003A1818322D0B3D2B0B3F2B083918FB
:100DC00008393908080B1810322D2A3A083E2D32FE
:100DD0003A1818322D0B3D2B0B3F2B0818083838CA
:100DE00003080B1810322D2B3A083E2D320000005C
:100DF00000000000000000003F3F3F3F013F013E78
:100E00003A08012A3A08380118322D3A080B3F32C5
:100E10000838011832322F322D3C2A1808322C3271
:100E20002D080B3C2A0B3C2A3B323B32322A08016C
:100E30003E2A323A0B2F3A0B2F3A0B2F3A0B2F3A0E
:100E40000B2F0B2F3A0B322F181038083C2B380879
:100E50003F2B18322F3A180B2F3A083D2B180B3224
:100E60002F3A3200000000000000000000000000E7
:100E7000000038000000003C00003C003F3E383FCE
:100E8000190B18191818092C322D3C32181818187B
:100E900008093D2A0B3E2B090B3F2B08322C081C5E
:100EA000112A0B3C2A1C0B322C322D09322C0B320E
:100EB0002F322D2A0B3C2A0B322C322D2A0B3C2BA5
:100EC000093E2A322D322C322D2B0B3C2B0B3C2B86
:100ED0000B3E2A0B322C322D1C0B183A32083E2BBB
:100EE000093E2A322D0C322C322D3A09192A322F82
:100EF0002A0038003F003F00003F3200003E3E0223
:100F00003C32093D2A0B3C2A2F0B3C2A0B2A323A51
:100F10000B322A320B2A0B32103A083C2A38083F8F
:100F20002A322D3232322A3A083E2A083E2A322A02
:100F3000323A321A18302A0A303A2F102A2A00324E
:100F40002F322B013C320B3C2B18180B322C2D0B63
:100F50003C2B180B322C322D083818320B3C2B3A14
:100F600018320B3C2B1818320B323A303230320028
:100F70000000003F003F003F30000101003F38000B
:100F8000322F1832183D18321832180932322F32E7
:100F9000183430383D2A3C2A38383D2B231E343C47
:100FA0002B342A322F2F383838231E3A08180801DC
:100FB0000A1A383208180C183232080B3C2B0B3244
:100FC0003C2F32231E231D231D343A083E32231E9C
:100FD0000034322D0F322F0801322F08322D322FDC
:100FE000322F322F2D000000000000000000000012
:100FF0000000002F110A343202000D12303E002A88
:1010000000343A093C2934323A091D091D0D0D38C6
:101010003C29081D081D081D081D081D081D3A1D36
:10102000340C341C1028323C280901183228343280
:101030003A180C10283E29323C2809183228343A34
:101040001D321D32152932213C293209213C292526
:10105000322D0009193818081C10291808380C3CC2
:101060002910293209012D322D0000000200003222
:10107000021900313F320000000000002A00153F35
:1010800030322A322A1808390B3E2A080B180C185D
:10109000320F32322C321F38183B07081F322F32E2
:1010A0002F3A320F1817380F030B1A38320C32321E
:1010B000320303080510090F101213140202020272
:1010C0000202143B0B323232322F322A1808031834
:1010D000322F3E2F322F3E2F083F2B322F2B322F15
:1010E00010102B3A32000000000000000000040441
:1010F000040604070011033200003F120000023F03
:101100003A180B1F181818322F3C2A322F3C2A2766
:101110002F2F322F3C2A322F3C2A272F2F3B323BB6
:1011200039323A0B1827340C03180C03180C1834F6
:10113000322708383903081C08393903081C3232B1
:10114000102A39323A0B18270C180C183227340899
:101150001C081C080338391808033939081C3432B4
:10116000102B39323B083200000000000000000064
:1011700000003C1203073F05190418170607123236
:101180003A272A320F323E2A183B2A0B3434320BCC
:101190001F0B1F0F0F38033E2A321F320F030B3E67
:1011A0002A3A2A3A343A183A183432343B38183B3F
:1011B0002A3B08083E32272F1808390B3C2B102AEF
:1011C0000B3818083908320F3218080B3E0B083458
:1011D00039323B080B3E3208390B3C3839030B1BC4
:1011E000080B180C381808393E383200382F0032F6
:1011F000003F0A00003F183D033F013F0200001777
:101200001808390B3E32080B180C323A18320F32DC
:101210003E2A0B34340B340B383C2A0B340B270199
:1012200027010B3C2F3B32322F3C320B2701322F50
:101230003C320B180B180B340B340B3434031C34B6
:10124000031C0B34102A0B180B3438380B34102BBA
:101250000F383803180F3838380308183B323B086A
:101260003200000000000000003F3D003D00030090
:10127000013E3B0C030C3C11100300000200003F38
:101280003A180B1F18320F3218180B2F383838182D
:10129000083E2A3B32322F3C32322B0B2701322FB1
:1012A0003C32082F38383818083E2A3B32322F3C5F
:1012B00032322B0B2701322F3C3208322F2F3A0BC0
:1012C00027012F3A0B27012F3A0827010838380346
:1012D0001B083838030B270108383827010B270172
:1012E0003A2701320000000000000000000000006A
:1012F000030003030E000E0C10000C0A3E00123215
:101300000B1A1A2701393C2F38030B383E32122AA8
:10131000122A3B3200002701393C2A38030B383EA1
:101320002A3227013932180B180B181C102A272FC4
:10133000322F0B3427340B1F0B1F0F0F38033E2B9C
:101340000B341F0B340F033E0B0B34321C0C3C2BA5
:101350003F0B0B083C3A1810083F0B0B083E2A08BD
:1013600032000000000000003F02060A1F01033F98
:10137000013F020700071817003F023F030C113D11
:10138000180B180B340B34270C1B0B340B38380399
:10139000340B340B34103C2A102A0B340B34102A33
:1013A00032320B343B32180B180B340B34270B340E
:1013B00034031B340338390B1C0B34103C2B102A1C
:1013C0000B340B34102B32323B32003A0B180B1813
:1013D000343A08321C32102B3B3218322F1808399D
:1013E0000B3E32080B1808321C3232322F3B3200CF
:1013F000000002023F000300020000001201023C54
:10140000322F18390B083E32080B18320C323232A8
:101410002F322F1808030B18320C3218083F0B0B11
:101420001A103C2A0B322E3C321038102A320B2E66
:1014300000001B0B340E12340B340B340B340B3402
:101440002E003A0B340F13340B343834031B0B3497
:101450000B2F00322F1808030B1F08033C3B3838B2
:1014600018322F0B18183200000000003F1F1232F4
:10147000000003020000023E3C0A3F0011003F0250
:101480003A0F0B3E320F182C0B180B1A3B183A1858
:101490003200383A083E322E322F390B030B1A0B2A
:1014A0003C0B1A322F0B18322F390B030B1A0B3C43
:1014B0000B1A322F0B18322F381838380C38381CCA
:1014C000102A32323B323A0B27180B2718322F0BD7
:1014D00018322F0B18322F381838383808340C3C93
:1014E00038383808343D1C102B3432323B3200007F
:1014F00000001314133F003232002002323B3D0241
:101500000018322F390B3C2A383C3F383D030B1C66
:101510000B1C0B1C3D2E0B38030B1C0B3C0B1C0B2C
:101520001C2E322F321F0F1F0F32393E3832322F0E
:10153000322F0B18320F323E2F08033E2F0B1F0B9A
:1015400018322F3E2F322F10102B3B3232323232D4
:1015500015021A0A0A000000001200000000000034
:1015600000000000000000040406160732200400FA
:101570000A11000000003400323034323200200200
:101580001808383834340B1C0B1C08033E2A1B0F78
:101590000B3E2A132A2A0B1C0B1C3A0C033C2A3A3A
:1015A0000C033C2A0B2B083838031B0B18340B1F79
:1015B000340C341F3A0C033C2A3A0C033C2B0B2B03
:1015C0001338102A0B1C0B180B0B180B182B340C90
:1015D00038340C3C2B102B343B323A08030B343993
:1015E0003200003A320F323E132F0000000000009C
:1015F00000180710013B3C08010203003C003F01BA
:101600000B180B183A343234320B1F0B1F0F0F34E8
:1016100032383E2A0B180B08180832083E0B0818FF
:10162000083838033C083E0B3D340838030B1F08CC
:101630003838030B1839323A0B1827340C18342772
:10164000081C3232102A39323A0B18270C1832276C
:1016500034081C3432102B3932000B3434320F3C36
:101660003F381F3F0F033E3B381832342F00000332
:101670000012073E0732000000083F2A3F150738D6
:1016800028053206250825082408240825092409E8
:10169000220C230C370E230D260D220E22102210B1
:1016A0002312331233123012341136073406340643
:1016B00025132D132C1A241C321C241D321D241812
:1016C000321922143016302026223020380D380DE1
:1016D000330733260004000400040004000400045F
:1016E000000400040004210A300A2D0A300A330ADB
:1016F0000004210A300A2D0A300A330A0004361485
:101700002915000419151D0D090100000018151DEB
:10171000091914193D1904010000193119051D1882
:101720001D1501001905192118051D0D00193D0988
:10173000011911010100190519041D1501010019F4
:1017400025010000083D1114193D01000019151D67
:101750000D09011D090101000901193D1D111D019E
:101760000009011D0D01001C09192D192509010988
:1017700001001831191D09010D011C151D11193920
:101780001C1100001C09192D1C110000180519312D
:101790001C090901090100180519151904010000A7
:1017A0001839193D09011905190401000019391DDD
:1017B0000C0101001D11181501001D0919111D0C46
:1017C00001010019090901193101000D39000D3914
:1017D000000D39000D39000D39000D39000D0500DF
:1017E000000D0900001D091D111839093D1D091DB5
:1017F0001119390000192519390100001815191996
:101800001939010000183D010100181519191905B1
:10181000193D1914193D0900193D093D191D010013
:101820000019151D09191518051925193D01000084
:101830001D01193901000019250100000C38180597
:101840001925193D0100001035010000101101009B
:1018500000110D0C080000103D113419251D090060
:1018600001001821192D19350000083415090C0044
:101870000C040C140C2400100D001D0119251D1161
:10188000100C0C040C0C0C000800090119050901CE
:101890001935111C1935093910040901191D1D0DBF
:1018A00018151D091911000015090000000101009B
:1018B00001010008001D111D09113C010008001D57
:1018C000111D091118113100111500000009010046
:1018D00000001D111815190D1911001D111C1519E5
:1018E0003D1915010011090000001D090901000141
:1018F0000100183D183119210019151D0919151875
:10190000311921002525262626272728292429299B
:101910002A2A2B2B242B2B2C2C2C242D2D2E2E2E17
:101920002E2F00242F3030313400242F3131323229
:1019300033323334002434340024353035353636F0
:101940003637372438383839393A3A3A3B001105B6
:1019500011391104090115011125110C113511114D
:10196000010009001905152D18091909152C180C65
:10197000190D0125080019051939193419391815D7
:101980001D09010009011905152D18091909152C42
:10199000180C190D01250800190519391D00191514
:1019A0001934193D01010009011D090124083410F1
:1019B000141935191518151D0D1D090009001905F3
:1019C000152D18091909012408001D0D1D0D1909EF
:1019D000090119251934193D0101000901190515DD
:1019E0002D18091909012408001D0D1D0D190909DB
:1019F000011939090119351D2500090019050901C9
:101A000019090900190D09310838002508001D01C0
:101A1000192519241934193918151D09010009014E
:101A20001905090119090900190D0931083800259E
:101A300008001D01192519241D0019151934193D17
:101A4000010100090109011D2501240C3818151D8B
:101A50000D09010901191D1D11010100113515257F
:101A6000103D1105150D0009011905093519090960
:101A700001191101250C38183D090119351D2518CA
:101A800031192D00090119050935190901250834F5
:101A9000100C190D1D151934193D0901193D0101CD
:101AA0000009011D19152C19050935190909011914
:101AB0003515350934140C1D09090119351D25008A
:101AC00009011D19152C1905093519091535083491
:101AD0001018193118151D090100090119051905FA
:101AE00018091909012408001915090119351D25BE
:101AF00000111515011139110C11351111010009D1
:101B000001190501250834140C090119151D0119C5
:101B100039010009011905190501240C3818151D92
:101B20001919081905193D1D110001250024080087
:101B30001D0D19081905193D1D1101000124083456
:101B40001400190D19111805090119151D0119396C
:101B50000100113D1105110C15111131103D110538
:101B6000150D0009011905190501240C381C111D5A
:101B7000111805090119351D251C091D0901010050
:101B800001240834100C1D111D151914190D1925E7
:101B90000101000125002408001939191518391D03
:101BA000091D111939000125002408001905090132
:101BB000191518391D091D1119390009011C2101B8
:101BC0002408341014190D19151839103D19241D45
:101BD00011190D193D01000125002408001D0D1DDE
:101BE0000918151D1100113510250901113511397C
:101BF00001010011151025090111351139010100EC
:101C00000125002408001905190410251D001915C7
:101C10001D101915000901152C1D01152C190D1584
:101C200035083410101D0110051910192D18050163
:101C3000010009010124083410101939190515088B
:101C400009011D0D0100090101240834101819357E
:101C500009011135182501010009011D01152C1973
:101C600009152C190D1535083410101D0110111906
:101C700010192D1831192D0009011D0101240834F6
:101C8000101019391905112409011D0D0100090150
:101C90001D010124083410181935090111151825E2
:101CA000010100090115351C011D0101240C381822
:101CB0001109011D091D1119391805010009011D1E
:101CC0000D19101911002408001D011D001D111906
:101CD0002509011D0D1D1019101911000901190503
:101CE000190819090024080019351D091D100901DA
:101CF0001D091D1119390100090101240834140CB2
:101D0000193910111910192D14011C09103D010168
:101D100000152C153500240C38183D090111351C0F
:101D20000910111910192D0011090C08100C11358A
:101D3000111101000125002408001D1D193D090194
:101D400019050901113500150D113111391515113C
:101D50000C11351111010009010125002408001D95
:101D6000111821190C1D0D1915182519210009012B
:101D70000125002408001D111821190C1D0D19152D
:101D80001805090119391921000901012408341421
:101D90000C0901193919311D0C1D011934191500CF
:101DA000012500240800193D191819351D091D18B1
:101DB0001D0D1939000D2D1809180C09000901080D
:101DC000380834100C19091915183D19051D0D0096
:101DD0000901193909000D2D1809180C09000838D6
:101DE0000C3818151905190C193519110100183975
:101DF0001D101D11083800240800193519391D104F
:101E00001D110011151105110C15091511150D00E5
:101E10001939193D150C14201119002408001D0D45
:101E200019391D1019351905193C1D010101001939
:101E300039193D150414200925002408001D0D1929
:101E4000151815192519311C151D150100193919F9
:101E50003D113C002408001D01191509011D091937
:101E60003909011D111D11001939193D110C0024EA
:101E70000800193D09011D091939193C1D091925C9
:101E80000101001939193D112000240800193119E8
:101E900015182119301D11182119051915010011E6
:101EA0000915111010111509250024080019311900
:101EB00015182119301D11182119051915010019BE
:101EC00039193D1508002408001D1119151821198C
:101ED0000C1D091D1118250101001939193D151492
:101EE00000240800190509011D09193919301915AF
:101EF00000000000000000000000000000000000E2
:101F000000000000000000000000000000000000D1
:101F100000000000000000000000000000000000C1
:101F200000000000000000000000000000000000B1
:101F300000000000000000000000000000000000A1
:101F40000000000000000000000000000000000091
:101F50000000000000000000000000000000000081
:101F60000000000000000000000000000000000071
:101F70000000000000000000000000000000000061
:101F80000000000000000000000000000000000051
:101F90000000000000000000000000000000000041
:101FA0000000000000000000000000000000000031
:101FB0000000000000000000000000000000000021
:101FC0000000000000000000000000000000000011
:101FD0000000000000000000000000000000000001
:101FE00000000000000000000000000000000000F1
:101FF00000000000000000000000000000000000E1
:1020000000000000000000000000000000000000D0
:1020100000000000000000000000000000000000C0
:1020200000000000000000000000000000000000B0
:1020300000000000000000000000000000000000A0
:102040000018320D180938323A09323A08322C0099
:1020500018320D180938323A09323A08322C180C65
:102060003C32213C2900000000000000000000007C
:102070000000000000000000000000000000152328
:102080001D3A320B1A0B18320F0B1834340C0B3E5E
:102090002A0C0B3E2A0C3818340C380C341C102A2D
:1020A000003432320B1B320F0B180B1834340B1C5C
:1020B0000B1C0B1C0B18340C343238031C32031C61
:1020C000102A340032000000000000000000000070
:1020D0000000000000000000000000000000000000
:1020E00000000000000000000000000000000000F0
:1020F0000000000000003F0002013D3E3F000032B2
:102100003A321F34302A300B3C2A3A321F0B1F3A26
:102110001F0B1F3A1F340B182104102A3A18320CD7
:102120000B3C2A0C0B3C2A3A180B180C102A3C2AA0
:102130003B2A0B32322403232715170515321F3291
:1021400032323205000000000000000000000000F4
:10215000000000000000000000000000000000007F
:10216000000000000000000000000000000000006F
:10217000000000161C0C3F000732001232003F0026
:102180003A0B2A3A0B1821263C2A21262134323BCD
:102190000F3838320F180F180F0B1A081A00000CDE
:1021A00018323232322B323A0F380F3E2A0F380FA4
:1021B0003E2B173C0B0F1F2A323B0F1F3C0B0F1FF0
:1021C0003B0F1F3C0B0F1F2A32320F180F180F182E
:1021D0000B18083838322B3232030B213C082133DC
:1021E0000B32290821330B3229322F000000000066
:1021F0000008141400000000000000320000323219
:102200003A18083838030B180C1808042A08043C3C
:102210002A380C3C2A0C033E2A2A08180C32323881
:10222000322A32322A32033E2A2A0C18322C3A2120
:102230003932030B213C32082A0839030B1F0803EB
:102240000B1F081F08033C0838383A08033C3A3D86
:1022500018322F180838383E2B0B3229322B081829
:10226000322F182B0821330B32290821330B290078
:1022700000001414143E010A0A0A320000000B0088
:102280003B083C2A0B3E32083838030B213C32080D
:102290003E320B29323C32320C3232320000000026
:1022A000000000000000000000000000000000002E
:1022B000000000000000000000000000000000001E
:1022C000000000000000000000000000000000000E
:1022D00000000000000000000000000000000000FE
:1022E00000000000000000000000000000000000EE
:1022F0000000000000000000000000001400003397
:102300000C080C080C080C080C080C080C0A110A24
:1023100038002124380834243810293A3818242168
:1023200038202A3338282A303F3223263F322326CA
:102330003F3223263F3230003F3232263F323226B0
:102340003F3232223F3232263F3237323F32272667
:102350003F3223243F3233243F323023003F323098
:1023600023003F323023003F323023003F32322EF1
:10237000003F32322E003F323030003F32303000EA
:102380003F323230003F323230003F322C30003F9B
:10239000322C30003F30332F0F32003F30292E3F98
:1023A0003029263F303331302F3F30272630383F19
:1023B0003032263F3033343F3023263F302B263F08
:1023C000302B263F302B233F302B333F302B253F04
:1023D000302B223F3033263F3034263F3034263FE7
:1023E0003034233F30342B3F3034333F34303000EF
:1023F0003F343030003F343030003F343030003F25
:10240000343030003F343030003F343023003F342C
:102410002D103F342D113F342D123F342D133F34F6
:102420002C21003F343321303F3430292C003F34FD
:1024300033232C003F3433222F3F3433222F003FED
:10244000342330003F343333003F34332C003F34E7
:102450003330003F34322E003F34322F003F3432CD
:102460002F003F34303300003E3A23213D39232CE6
:102470003C3823213C38232C3C3829233C38223754
:102480003C38322C3C38322C3C3832323C383232F8
:102490003C38322C3F382E303F3A0834093F380858
:1024A00029093F390834093F3A082C093F3B082CD9
:1024B0001010003F3B082C1011003F3B082C10125D
:1024C000003F3B082C1013003F3B082C1014003F2A
:1024D0003B082C1016003F3B082C11003F3B082CFA
:1024E00012003F3B082C13003D3D33213C3C33217F
:1024F0003C3C332C3D3D33213C3C33213C3C332C94
:102500003E3E23213C3C2F323C3C28343F3C2E3085
:102510003F3C33303E3E23213D3D2D213C3C2D2C84
:102520003F3D33303F3E232D3F3F212C0000010033
:102530000100000000000000000100000000000099
:10254000000000000000000000000000000000008B
:10255000000000000000000000000000000000007B
:10256000000000000000000000000000000000006B
:10257000000000000000000000000000000000005B
:00000001FF
