:1000000000000000000000000000000000000000F0
:100010000000000000000000000000003F000000A1
:1000200000000000000000000000000000000000D0
:10003000000000000000000000000000000000338D
:1000400019122A2D27233F3F041F3F0F11271A188B
:10005000351030150A0E22002B001F15113F3807EE
:100060002000000000000000000000000000000070
:100070000000000000000000000000000000000080
:100080002A033E003F0F201E00200E201D122312C7
:10009000053E22002621152221083726211C201A80
:1000A0002037190837213D3C053B053A050805393D
:1000B000053805370536170D0120370F01203B376E
:1000C0000000000000000000000000000000000030
:1000D0000000000000000000000000000000000020
:1000E0000000000000000000000000000000000010
:1000F000000000000000003A180900003F02003F25
:100100000000003E1D003F0F0508003E053D053C78
:10011000053B280E35053A27281D3905380B37379A
:100120003728152035080A35360B15000B053635EE
:100130000534053600000B33000532283130282FF6
:100140002E28372D092C282B2A2A2A15050E29049A
:10015000281429232718292A1B281D293529391550
:10016000000000000000000700003A20273B261F87
:100170002817181F26183605223F000811003E3F99
:100180000000053F00053E17050B2815050D053D30
:10019000050E20370828350B3636283515053D0560
:1001A0000E37282B3C082E3B202E3A181239191AEC
:1001B000053D050E37283E38082E3C202E37192CD9
:1001C000053D050E371A2C050F09111D281009379A
:1001D00009173605050922350504093501050411FD
:1001E00035010504092A0508093A05080800000038
:1001F000000000000000103034233F212032003680
:100200002008002105121022233F1F223F1F220534
:100210003E051505040513182405141F1F2011059C
:10022000080F053D0508050D050B28153C20180491
:10023000053E05150420080021053B053A05113748
:1002400005160514050C28153C20183D050B28390A
:10025000050D0538050F3705360805380535051134
:10026000050E343600000000000000000000000011
:1002700000000000311F22250020211D14300F38FE
:1002800037011537003F370315373E11023D010294
:100290003F37261500052D0535052A053005383B65
:1002A000051408002623053C260401230B00230E19
:1002B000032311123B02231A04231D0523210423C7
:1002C0001700201E3A060015003E212836150501AC
:1002D00005081F26263E01152605010508261F3E96
:1002E000011537370518050E21372815090D053971
:1002F0003705040515050300000F010A00003F291A
:1003000005121018053F050E21053E0515051318A9
:1003100020390514053E260516051418203909153F
:10032000193605121018050E212828041801280571
:100330001528280513183F05142A28283F053D09CC
:100340000428020511370A051000261F2020221E4E
:100350002421050C281C050D0512050E2605160581
:1003600013181505141C133C133B0000000000007B
:100370000000000000000000000000030036201D07
:100380000511373A1F2020221E24203B212A281B3A
:1003900005122A281B0511373B050E393A3B213A35
:1003A000050A05153B3A202E053F0508203905139F
:1003B000183505142039201519240000050F0514DF
:1003C00026081F09201F280D053F0508263901268C
:1003D0002015192D003E083D093C0A3B3921150521
:1003E0001408282F211F202F092120203010150943
:1003F000392100150000000000000038100800300E
:1004000005102816050D053F3728181F053E101446
:10041000081F1F151934053D08090A391815053F2D
:100420003728181F050E053E102C193A053D0908FE
:100430002836392E190308231F23092320231505E5
:100440003D08280E1F092005150A3C051610090A4B
:10045000390115053D08281F1F09200A0516210925
:100460000A391515050F021E20001F00062105156B
:1004700007053B053A390000002033021E141F0017
:10048000050F0302202917050F05020E050F3F3E39
:10049000053D2903173F3C07251F20180000040FC6
:1004A000051F031102050104000510283D050D0577
:1004B0003B050E050A3700200A0620020E050A0E2B
:1004C000050F050A2104071A0B3A0001030204056F
:1004D0003320001505113728372A28200511050E6D
:1004E00028390026191A3937003926392030093FB2
:1004F000090B26020000000000002900093F261910
:100500003F082009000828152136091D3E10201536
:1005100004020F0F1400050B282A050D053E050FD8
:100520003D053C1832053B3A0039053410250500DD
:10053000102519181A0005001815090705080015D7
:100540001A0005001815090C050800150511050EFF
:1005500035201E09253726260504053810172615CF
:10056000191A0000003708151921000000000000CA
:100570000000000000000007150E050A223D0010D3
:1005800000093F03200000001A002010093E03204C
:100590000707050B2833050D0511373D2031373985
:1005A000050C283C050D0511050E393C08370812CD
:1005B0003B191A39053C39393D20341509373905BD
:1005C0003A093C393C08080209350133091C1B3B38
:1005D00018393908093D083D20083915011A083B2A
:1005E0001A001838003D0815091C1B1B0134050AA8
:1005F0003B203D200F05070F043F02230F38122731
:10060000093C091C1B011A083B1A00183F3B18390A
:100610003E08093D21082033083D012033391301EC
:100620003D0815091C1B1B0134050A3B203D200613
:10063000050706010508090A091C01050220053DF8
:10064000053C093B01223B3D3A3905383D370A0557
:1006500000090508053C0936011A121835213B0925
:10066000343D013339053809343D01320A050011A2
:10067000000007122620140C082124100C223F042D
:10068000050F213F3905153E2003390505153E2884
:100690000C3D37283D1F2011373D2001371305152C
:1006A00014133C0211143C0126051537373E280C63
:1006B00028131428133B203E2605161F0017261F5B
:1006C00017373B280C371E200515371726212828F9
:1006D000053A03000000392F191D001E15012018CE
:1006E0002F1815053E170000000000000000000054
:1006F000000000000000000000383A003F00003E0B
:100700003F37213B0B053E3D37223B051109373C66
:10071000373B1C1B013C050C2833050D051109371F
:100720001C371B01203C050C2833050D0511372112
:100730003C050E1A083B1A0018043B053A091C1B1D
:10074000013C3315012609042605033931213B16E6
:10075000053E3831223B0511050E09373B373C0178
:100760000133343B0537091C1C1B1C34011A083BA0
:100770001A0018042300002B24120014100C220766
:100780002A393F0828091C01050105073905050517
:100790003E053F0908012626282826050439391F69
:1007A00020130508392A20052802002A3F0839208D
:1007B00038283D053C053B2835392A282A051137BC
:1007C00021382808381837382A3A201805113721D7
:1007D0003920182A39201805113709083728280127
:1007E00039391F201705102018320511372128200C
:1007F000362A20183815190D00111208003A3C3F0E
:10080000053F05113722053E051137230E05000966
:100810003C3D1F2305000921230504053C10170951
:10082000303B1F091C011A0822093A01221A0C1830
:1008300039051F091C080022201C01202605072657
:10084000010905081A0823093A01221A2418391542
:10085000052D281A0823093A01221A0C1839052DEA
:10086000212828150508090A091C0105023808373E
:1008700039090839320115003F04100415102122EE
:100880003F1819053E053D1A0B123C1D2035030982
:100890003B3A3A023923383A3A0239223B3A3A0291
:1008A0003921232035383A3A0239020121222035F4
:1008B00023212220380932173B3A0939053710170E
:1008C0003635223B3413151B150700010233332A3A
:1008D000003F12040F11271A183510303F2B3F210B
:1008E00032071F20222425101C00000000000000F9
:1008F00000000000233100151002003F01160A100D
:10090000001D201509253F1B0810092A1B05060894
:100910002015092F080912081A0009281A26283755
:1009200005061D282809302A092D093E0128360010
:1009300034093336093D08091208001D201C090836
:100940001A0B18191A271819093D3C012816050613
:10095000090D3B053A08091B080912081A0B150076
:100960002E1F2D1F010D00390D002E0B2D00000034
:10097000000000000000000000062D35121D1B3E87
:10098000053F050E053E37280C1A3E151A031505BE
:1009900010002A20280F2A150510050C201815050F
:1009A00010002A20201815200B0B15000000000055
:1009B0000000000000000000000000000000000037
:1009C0000000000000000000000000000000000027
:1009D0000000000000000000000000000000000017
:1009E0000000000000000000000000000000000007
:1009F00000000000000000000000000000002232A3
:100A000000000000000000000000000000000000E6
:100A100000000000000000000000000000000000D6
:100A200000000000000000000000000000000000C6
:100A300000000000000000000000000000000000B6
:100A400000000000000000000000000000000000A6
:100A50000000000000000000000000000000000096
:100A60000000000000000000000000000000000086
:100A70000000000000000000000000000000000076
:100A80000000000000000000000000000000000066
:100A90000000000000000000000000000000000056
:100AA0000000000000000000000000000000000046
:100AB0000000000000000000000000000000000036
:100AC0000000000000000000000000000000000026
:100AD0000000000000000000000000000000000016
:100AE0000000000000000000000000000000000006
:100AF00000000000000000000000000000000000F6
:100B000000000000000000000000000000000000E5
:100B100000000000000000000000000000000000D5
:100B200000000000000000000000000000000000C5
:100B300000000000000000000000000000000000B5
:100B400000000000000000000000000000000000A5
:100B50000000000000000000000000000000000095
:100B60000000000000000000000000000000000085
:100B70000000000000000000000000000000000075
:100B80000031323320182030302815363F3E3E1DCC
:100B9000153028151C3D21311A28153C01201C1C3C
:100BA0003D0131200111013101281504183B11329A
:100BB000010802061809083A061839081D04081524
:100BC0001500040005290538080437110236010212
:100BD000052905350805343604000000210000050C
:100BE00029001F021E2005330805343600003E018F
:100BF000150000300035003F2D0E0F073720101074
:100C000000021E3F050015320C05083E2032150477
:100C1000050301023D0233071500003028221C3C69
:100C20001A2019191B15183028153320011C081813
:100C30003808183B08183E030002020001020003B6
:100C4000023426001D28151E0F1E001E3C28110F01
:100C5000150D15000000000000000000000000005D
:100C60000000000000000000000000000000000084
:100C7000000000000000000000000000103F2A01FA
:100C80003F08263A093A17263A240808082202069D
:100C9000110822020A0118081D012815053E04004A
:100CA000001F05001F1F08082815053E2708090812
:100CB000012815053E2E373702053C373E3D3C37AF
:100CC0003A37003B10083A023A0D003A2810053F27
:100CD0001D3937383A3706062A2A08372A1F0539B8
:100CE0003A15150C37261405123F05120805120592
:100CF00008170000000000003C020A3617203F3FA2
:100D00000020000A00090A012800053F0508050027
:100D100020053E1F0501053D3F080A1F3C053B37E6
:100D20001F15051D1F22202415051D1F2320251515
:100D30000529050C3A20040522231F25200515103E
:100D40001815192D232225240015001F15203908F8
:100D500010381E201500203124201522211F0015D7
:100D60000023111F23011F2511202501201500003C
:100D7000000000000000000000081304023C1900FD
:100D80000027050B28150517101820022705100548
:100D900017100D20272715103F001D3E153D001090
:100DA0003C15080908282D2127282D082408310181
:100DB000310000373A050B3B080B3A200B3704375C
:100DC000370404372A3B373A051037003A281815FC
:100DD00000373A050B3B08283920283738370604F6
:100DE000382A3B373A051015003A2818150000003C
:100DF0000000000000000000383937101B26013FBA
:100E000000021E0800020C1E200511003A3F0815C2
:100E100038021E2015053E050A28172A2A053E0518
:100E2000082A3D282A3C282A0015101505332D1FB5
:100E3000202C15003B3A00393A00383700363A008A
:100E4000353A343A003305372D2E00192817212E54
:100E500008172E0532202C3137202D08212D300582
:100E60003700150000000000000000000000000036
:100E7000080A390D302E2F24073F17202027363B34
:100E8000243F0B232C2B243E050A28152A2C2B2E1D
:100E90002A2008223E281D233D002E2A053E2A0B2B
:100EA00023083C20340B3B053E050824053E3F0546
:100EB0003A050D0839203D38053E05080137200A5E
:100EC0002328080500053F05002836281635281672
:100ED00034201733053E05080B3F0B20151A200060
:100EE000232808050D0B053E050D20232308053298
:100EF0000800391B2F033B0D153D26120E19211832
:100F000028152000163F20093E3D200E3C170D00FD
:100F10003B05241D3A17390D2D00182823212D08D3
:100F20002305081D0D053F002B20302C20251D33E7
:100F30001D00153E2F213B3E2600382F353700057A
:100F400038052A1D281537200F2B2C36053E17355E
:100F5000201C2C34053E05082B202B153320222085
:100F60002C153220282C2E1531150019151E1500B0
:100F70000011023C0F34033D24201B1E242E2C178D
:100F80000B3E012E02010307041705250F033D3E0A
:100F90002E210004082B181E040608091020190829
:100FA000091B26053C3B0000001004200000021E27
:100FB00039320036000600073E01073A2805390B92
:100FC000283803100C102710321D00292015101787
:100FD000001D0508100537021E05360005020535FF
:100FE0000534053317000000000000000000000079
:100FF000000000291320190001182217270F0100F3
:1010000000270D3F2027263E003E3D3C3B3D3B2038
:101010002027203D213B223A233924382537013629
:101020000100020000200C282E35342C011E251151
:10103000010000003220270C283E333C09302420D8
:101040003636363E3627361220073E3212200C3115
:101050000330002F150000000000170000210020C1
:1010600027001C0C2E2D12032C000000373808011D
:10107000011918391F090025242322212A20153897
:101080003A052105212828003F181F283E28282836
:10109000013D090528013D0828283C283C033B0365
:1010A0003A0001392939003C38372B0036293E09EE
:1010B00015030800240F1E1A001806221F1F1F1FE9
:1010C0001F1F2E003615031505350521152834146C
:1010D000053318320531183028001E052F20052E43
:1010E000152D1400150000000000000000000F1A6C
:1010F0001F311D1207131001380007150201312E90
:1011000020093F3E2B1415053D181D053C181F3BBB
:101110003A39053D181D053C181F3B383711151687
:10112000101500362A350308341708341808190238
:1011300009331902063217091906063218093E0941
:101140002A25001500362A33091709183E350317DA
:101150000818081732020A1718320A0A1708020973
:101160002A070015001B1500000000000000000009
:10117000000000113F2B0004082237223112120117
:10118000003F2B013E09280B1B24283D0803013C8E
:101190003B3A393B3920382028093B013B38372876
:1011A000232028010D201B012702151E24011B16D8
:1011B0002800152618153F361A15003510001A3A62
:1011C000340208080408013309082632283D1A08A9
:1011D0000015001431181514043118010C302F2C8F
:1011E000143325252126260028101500002B000188
:1011F0003838201C152B1B163F3F153E2A201B227A
:101200001414003F1815143E2525150012013D0940
:1012100020253C3F3E3B3F3F0120183A3F393806EE
:10122000370736203530150535181534380705339E
:1012300018153209312A3C3F303E2F3F382E0939EC
:101240002E092D3F2A3A312A2F3F00002D3F2A0830
:101250002C080A2B122A0606042912120015001265
:10126000150000000000000000203B1F38063F076B
:1012700000003F162C001B0131250A0B121D1C38E3
:1012800020093F3E2B013D0910113C3B0000002C82
:101290001220153015053A18150508393807053795
:1012A00018152C360000002C12202D3015053A1888
:1012B000150508353807053718152C05343A00335D
:1012C00038073A003238073A0011380311020A3160
:1012D0002410060630243804100A0A38053238066D
:1012E00001380215000000000000000000000000AE
:1012F000300F2021003026163120000C0010120182
:101300003F15143E0708183D043C3B1028151403F4
:101310001503301500003E07081822043A39102042
:1013200016153E011015243914380A0A142B3736C5
:101330000535340833033231302F312F012E200A86
:101340002D082F34082F2E202C2B02092525281795
:10135000082A29242820241427002828142030248F
:1013600015000000000000003C00002020203F3F4E
:10137000153E2A2B201200221B38080000220128CB
:101380002C3F2A3E3F3D3E3C090A0A3D0A020A3BE9
:101390003C3A3F393F2A08202C083A3F393F2A1A65
:1013A000093E383F00152C3F2A383F3D3E3C373F31
:1013B00039360A383B02060A09353F2A08062C2E20
:1013C000373F353F2A00093E0015000034103B0A24
:1013D000020D10010A091011001510053313130036
:1013E000341815133B0A10010A09120532001500C2
:1013F0000000232138063F071208090F11000000E2
:10140000053F13003E131815133D0A010A0915057F
:101410003C053F11283B3D0A010A091028003A39D2
:10142000302D082E380530181511002D21153730B4
:10143000000012363F31313E123D353F343F333FDD
:10144000310000333F01013E3B3F00393212313F52
:10145000120100053F2828302F2E282D28180221A0
:101460002D053F2C092B1500000000003F00120144
:1014700038063F120809000000242807130F3821FE
:10148000003F3E28153F28283D093C12242D202BE3
:10149000150000002B283611053B003A39383A3741
:1014A00018363B053B350A053B003A39383D3718BD
:1014B000363E053B350B053B212A00000A00000B98
:1014C0002A3A3E09001500343314323315053B35F2
:1014D0000A053B350B053B212A00000014080A11C0
:1014E0000000001508110B2A19023E090015000022
:1014F00000001F00183F083601380021093F213C39
:10150000000A053F003E10160C110102113D3C0A75
:101510003B0A3A0A1100390C3D3C0A3810370A36AA
:101520000A00053F01353433320900281015053112
:10153000053F3015012F09282E282D202E2C2B2A6F
:1015400026052918280527152D01001513151B152B
:101550000E31000B2300101109122B1200000000A5
:1015600000000000000000221F31002C09071D1B95
:1015700020133034013302083600033E01380021C5
:101580002C110A0A08033F003E00113D20262121AC
:101590003C2016210F263B003A00000039281A0093
:1015A00000382826371E1102063621350A03342159
:1015B000020A032100003928340000382800331EB5
:1015C00021002C2D3E00350A21350B362C0E020A47
:1015D00021030B201A2C0E020015000B32310210D1
:1015E0001500000001300B2822220000000000003E
:1015F0001D003F00003F00003F001020010F3F1082
:101600003F1C3E24200839033E3D3C3B3A3C3A0215
:10161000092020193C1D39242424151428391516B5
:1016200016020A38111420370108160A3635341606
:101630000204333A08001500332A32030817023136
:1016400017093E092A3A001500332A3109173E329C
:1016500003170802092A0B001500300803013A118C
:1016600001213A013A2F2824011B09021900003FE9
:1016700020112B002C0138100F003F2A3E150000CE
:10168000000C30080002300000373035320C321ABE
:101690002D002B2233002D072D032C3C301E320051
:1016A000000C29003429000732242507371D30306B
:1016B000381432003000240524002C102C0B263E58
:1016C000261400162D1223142C0B250D002630286D
:1016D00023002400002B002B002B002B002B002BC1
:1016E000002B002B002B232A232D31303335323EA3
:1016F000002B23002303310633093211002B2D3434
:101700002400002B0328232B352D3D20003F0D2DD9
:101710002F392032323220342000092C25272C206A
:10172000212C2500132532232026292C0017322EA8
:10173000272F3225320017323020322F2E2400136B
:101740002B3020003F090F203232322000032823A3
:101750002B352D25322F32000E2F222F34333221FC
:10176000000E2F24292B0025022521302F2E342175
:1017700034003F092C25212C101220262E23292F3E
:101780002021200025022521202120003F102E2588
:10179000203421302134003F082C34242034200010
:1017A0003F152B2E372E343230203420000E2F25BB
:1017B000202534000E2F20333400012C2521392020
:1017C00025340014212C2526352C0001030010039C
:1017D000000D110009120013120010130013103E27
:1017E0000013103E00062F2D2120352934302134DE
:1017F00029292F20001732342927200020163229CA
:10180000392927200020042E25003F1632292923BC
:1018100034292E203232322C222C232B3021252029
:10182000000F36323729342030323434292E20004C
:10183000032F3929272000152E342000202D2010B9
:10184000323434292E20002D160130002D090130AC
:101850000013023631300020120D202F2E342F209D
:1018600016002003252333352000303901102D3197
:1018700020323A313A33002D1200032F3932272813
:101880002028292039382D323130223913303225A1
:1018900014292520293A2F3320202C2C32292834B2
:1018A0002032332536252E000E163A20000B02007A
:1018B0000B1700202D0221342539200B00202D028A
:1018C000213425392001090009043A20000D022D98
:1018D00020000E2F202434253425000E2F203330F5
:1018E0003032342400090F3A200005322F32000F25
:1018F0000B003F0E20062133000F363237293420EB
:10190000262133000E2204273C1B3A1E03221C27EB
:101910000421001A22313F132A3C221223001326ED
:101920003B170022261532061100223319380E3DCE
:101930001C2338110022283400220700172E09200A
:1019400035102E2203102F0D28031F3F1A000518F3
:101950000D0905200E0404050F1314200F0D010EB0
:1019600013000520212121212D2222221D202C209F
:101970002323231D2D3E05382D2925202129202D07
:101980002D2F39000510212121212D2222221D2059
:101990002C202323231D2D3E05382D292520212EE3
:1019A0002C20252D32390005121B321D0909093E54
:1019B000203821292E2032272934250018202121E2
:1019C00021212D2222221D092D3E04292133252DDE
:1019D0002C252D212E20252D3239001810212121D2
:1019E000212D2222221D092D3E04292133252D2CB3
:1019F000253021252C2D252F3200042021212121C5
:101A00002222222C1B232323202E2E1D2D3E042593
:101A10002F3334202E202129202D2D2F3900041082
:101A2000212121212222222C1B232323202E2E1D83
:101A30002D3E04252F3334202E20212E2C20252D21
:101A40003239000412383839393909092D20043067
:101A50002F2934292E322529332532000D050F1266
:101A600020030D0D0E0400020D212121212222222E
:101A70002224242424092D200D36252D252F322023
:101A8000222F2300030B21212121222222220909B6
:101A90003E2028252B332D20252D3239222C232B97
:101AA0000017133636362021212121222222221B23
:101AB0002D2D2D1D093E20252123282D252F3200D7
:101AC000060D363636202121212122222222090923
:101AD0003E20292C202D2D2F3900030D1B212121E3
:101AE0002D2222221D092D3E032C21322D252F329D
:101AF000000212010B0F0914200F0D010E1300023A
:101B0000102121212109093E2025342232212B2FA9
:101B100029340002121B2121211D09092D20122D1B
:101B20002F252032252B30292E00020C09092D3EAD
:101B30000C29342032252B30292E330010090909B5
:101B40003E20322F2525203033342232212B2F29DD
:101B50003400101207120D200F0E120F20030D0D6E
:101B60000E040013141B2121211D09092D2013210E
:101B700032202D292E2D252F3220302F27212D00E8
:101B8000030909093E202F2E292E2520382535341A
:101B90002F2E00130909092D3E1329272C20293344
:101BA000343523292F00141209092D3E1432232520
:101BB0002F2E202933343523292F000518363838A5
:101BC0000909093E20382535342021200914202E0A
:101BD00033323534292E000D1209092D3E0D2134E2
:101BE00025203233250012012004130B030F0D01B1
:101BF00004130009042004130B030F0D0104130048
:101C00000C1009092D3E0C2F242020020E2021301B
:101C1000322021300012043520303030202323239D
:101C20001D09093E20352D20120D20293320302793
:101C30002500120C350909093E202F372C2F2420AE
:101C4000010D24292B001206350909093E202F32E7
:101C5000213412012024332B0004043030302022A0
:101C60002222202323231D09093E20352D2009058A
:101C700020293320222F2300040C30303009090999
:101C80003E202F372C2F2420040524292B00040666
:101C90003030300909093E202F3221340904202434
:101CA000332B00100D1B35201B30301D09092D2052
:101CB00005293430213429292F202D3000100333F9
:101CC000333320242409092D3E032F3920213229C2
:101CD000342F2E333333202F2024240010052121CC
:101CE0002120222209092D3E032F30212520372FC4
:101CF00030213429292F330013042E0909093E20ED
:101D000030292009052029332015202F2004170E03
:101D100000022024240909092D20022F3412012059
:101D20002F20090520293300090F363130200F0DEF
:101D3000010E1300060C09092D3E042F2E2C212420
:101D4000062C3328120F000D0903050C01050F1393
:101D5000200F0D010E130014172E2E09092D3E130E
:101D600025203425202F2E2F2C203724340014102A
:101D70002E2E09092D3E1325203425202F2E2F2C01
:101D8000203027252C2527340013032E0909093E6E
:101D9000202534232F332F2520232F25202F2400E7
:101DA000160509092D3E1328372029323721252011
:101DB0002532292F00212120223B20233B24242EC1
:101DC0002E09093E202F2D292E20232D2D2E2400D3
:101DD00012101B2E1D3B212120223B20233B2E2EA7
:101DE000092D2012302534202F2D212E33002121C2
:101DF000392025382E2E09092D3E032F2D2534207C
:101E0000253800131003090C2008010103051200F6
:101E1000032F34322C2D20280F0629092D3E13358F
:101E2000302524202532292E2C203534353400034A
:101E30002F34322C2D20280F0E09092D3E12253566
:101E40002D2034322D2E21202F34303400032F3416
:101E5000322C2D09092D3E13353032333334252DE4
:101E600029212C2F35303500032F34322C2D090930
:101E70002D3E0122323423353225342030252134C1
:101E80002F2E00032F34322C2D09092D3E04252539
:101E900034203425202133202321322334320012F0
:101EA000150F152028050C140509092D3E042525BC
:101EB00034203425202133202321322334320003DF
:101EC0002F34322C2D09092D3E122539302034258E
:101ED000203532252E202C2E2500032F34322C2D98
:101EE00009092D3E05323325233532253420292E8C
:101EF00000000000000000000000000000000000E2
:101F000000000000000000000000000000000000D1
:101F100000000000000000000000000000000000C1
:101F200000000000000000000000000000000000B1
:101F300000000000000000000000000000000000A1
:101F40000000000000000000000000000000000091
:101F50000000000000000000000000000000000081
:101F60000000000000000000000000000000000071
:101F70000000000000000000000000000000000061
:101F80000000000000000000000000000000000051
:101F90000000000000000000000000000000000041
:101FA0000000000000000000000000000000000031
:101FB0000000000000000000000000000000000021
:101FC0000000000000000000000000000000000011
:101FD0000000000000000000000000000000000001
:101FE00000000000000000000000000000000000F1
:101FF00000000000000000000000000000000000E1
:1020000000000000000000000000000000000000D0
:1020100000000000000000000000000000000000C0
:1020200000000000000000000000000000000000B0
:1020300000000000000000000000000000000000A0
:10204000001011001100010D003F0D0010031100E0
:1020500010110F110F010D003E0D00100B110A0A97
:10206000281500001F000000000000000000000014
:1020700000000000000000000000000000000C054F
:102080000D000C3F203E0B013D3C0C08030C3B2097
:10209000200C3A20200C2101030C020C020B011829
:1020A0000002150C3F03013D3C0C3E0B0803390CAC
:1020B000380C370C3601020B030D02350C1D350CA4
:1020C00001360200150000000000000000000000C2
:1020D0000000000000000000000000000000000000
:1020E00000000000000000000000000000000000F0
:1020F00000000000003F350B361E0A22001C0F03B3
:1021000000013F0A190A1E3E283F20093D3C3B20A2
:102110003A393820370836020F22021820081908E9
:1021200035203F0834203F2009330209022B283292
:10213000163D32111A0810093F103F033F013F03BB
:10214000151B150100000000000000000000000049
:10215000000000000000000000000000000000007F
:10216000000000000000000000000000000000006F
:10217000000007002A1E2B082C092B121909251B09
:10218000003F05003E06000F283800270030010000
:102190003D0A080D3D053C033D3B1D061E000003A6
:1021A00004013E1D051901003D213A203239213C30
:1021B00028083C08383D3D0E0101393C18383A3DAD
:1021C0000D3C3918383D3A0E0315370336053504F2
:1021D0003F06050A080519031535340000030012EF
:1021E00033051E04001232051E11310000000000EC
:1021F0000000363330070206082224011F203E3635
:10220000000004020A3F3E080809040911040928D5
:102210002A2109281A093D280D150900090D0D026A
:1022200005321D05321D3D201C0D08010501000071
:1022300004153D3C000015053B050C3B3A39053BB8
:102240003A380637043611040C0600033510000135
:1022500001053802040C04102434051E0524020173
:102260000539022701001233051E020012321E003A
:102270000000382C2F003F1714160138203F3F0E66
:10228000000028123F1815040A083E3D0000150002
:1022900020153C1E0108013601113E15000000000A
:1022A000000000000000000000000000000000002E
:1022B000000000000000000000000000000000001E
:1022C000000000000000000000000000000000000E
:1022D00000000000000000000000000000000000FE
:1022E00000000000000000000000000000000000EE
:1022F000000000000000000000000000313007086E
:102300000F39133917391B391F3723372700270F88
:1023100000002E0000002100000033000000230018
:1023200000002D0000002D000701240007022900F5
:1023300007033800270632003F0C24003F14290011
:102340003F1C29003F242D003F2633003F2E230051
:102350003F3630003F3E30003F053011003F253012
:1023600012003F0D2111003F2D2112003F153411A5
:10237000003F353412003F1D2F11003F3D2F12004A
:102380003F073311003F173312003F0F3311003F57
:102390001F3312003F002B2E3033003F012F003F30
:1023A000022F003F03320F27003F04340F25003F68
:1023B0000534003F0627003F0721003F1823003F58
:1023C0001933003F1A23003F1C32003F1D29003FF4
:1023D0001E32003F2030003F2133003F2223003FC8
:1023E0002430003F2533003F262C003F38322100A7
:1023F0003F393222003F3A3223003F3C3721003F31
:102400003D3722003F3E3736003F3F3732003F0026
:102410002D003F012D003F022D003F032D003F08FE
:102420002432003F092433003F0A323335003F0B8A
:10243000253335003F0D222C003F1E222C12003F79
:10244000182332003F192837003F1A302B003F1B5A
:102450002334003F1C2633003F1D2C26003F1F2C39
:102460002E0038202F34000000002C0000002C002B
:1024700020202D0010102D00010121000E0233003C
:102480000E0421000E0634000E0821000E0A34004E
:102490000E0C13003F002F003F203321003F21236B
:1024A00021003F10332C003F04272B003F002E104B
:1024B0001009003F012E101009003F162E101009C0
:1024C000003F152E101009003F072E101009003F85
:1024D000172E101009003F202E2D09003F242E2D0D
:1024E00009003F262E2D090009002D0029203A0061
:1024F00019102E000908300029282E0019183A005A
:1025000001002C000504330003022C003F002F00C3
:102510003F082B0001012C00010131001111310095
:102520003F1137003F1121003F01230000091B002C
:1025300000003F002F200009001D000000000000E7
:10254000000000000000000000000000000000008B
:10255000000000000000000000000000000000007B
:10256000000000000000000000000000000000006B
:10257000000000000000000000000000000000005B
:00000001FF
