:1000000000000000000000000000000000000000F0
:1000100000000000000000000000000000000000E0
:1000200000000000000000000000000000000000D0
:1000300000000000000000000000000000000000C0
:1004000053424354313120524F4D204D4F4E4954A9
:100410004F52205600436F707972696768742028C4
:100420004329203230323120627920537061726565
:100430002054696D652047697A6D6F732E202041C5
:100440006C6C20726967687473207265736572766C
:1004500065642E0031323A35382033312D4A414E11
:100460002D3230323400DF451F0012FFDF550A0005
:1004700012FFF75500808AF7F7099010178D0000DA
:10048000DF451F0012FFDF55090012FFC21570FF84
:10049000C3153000F7096600DF451F0012FFDF5566
:1004A000080012FFC21540FDC3155000F7094E00A9
:1004B000DF451F0012FFDF55070012FFF7090E018D
:1004C000DF451F0012FFDF55060012FFF7095A0132
:1004D000DF451F0012FFDF55050012FFF709CE02AE
:1004E000DF451F0012FFDF55040012FFF70920024D
:1004F000178DE000F745008008F777004A03F215F2
:100500002E0004000A0AF20B0200C0152A00F709A7
:100510005E00C0155500F7095600CB15BEF2F31565
:10052000BEF20400178D0000CA454000F2454000AD
:100530000400972070FF1503F25501000400C01558
:100540000800F29500000600F28B0400FD80077E93
:10055000CA8BFF80F20B0200FF80F2350008020018
:10056000FF03F2952A0004000A0AF20B020087003A
:10057000CB15CC05F315CC050400178D0000F28BCC
:100580000400FD8032900600F31596050400F25534
:1005900040000400FF019625F315CC050400178DDB
:1005A0000000CB15AC05CA554000FF019625CB15C0
:1005B000CC05178D0000CA8BFF8032200200FF029D
:1005C000CA454000F245400004008700FF011F0AB1
:1005D00066FFDF1528064000178D0000C115640076
:1005E000C0150E01017E447EDF15F6054000DF5583
:1005F000400066FFFF019625DF1528064000178D95
:100600000000C1150400C0150E01017E447EDF15F7
:1006100016064000FF0196251F0A66FFDF15BEF291
:100620004000178D00008700FF01DF950E0016FFC8
:10063000DF950A0016FFDF950C0016FFDF95080016
:1006400016FF178DE000DFB5080014FFFF02DF95ED
:100650000F0016FFDF950D0016FFDFB5800014FFB9
:10066000FF03DFB5080014FFFF03DF95530010FF01
:10067000DFB5800014FFFF02DFB5080014FFFF02A2
:10068000DF950C0016FFDF950B0016FFDF950900C4
:1006900016FFDFB5200014FFFF03DFB5080014FFCD
:1006A000FF03DF8B10FFDFB5200014FFFF02DFB573
:1006B000080014FFFF02DF95080016FFDF150E0784
:1006C0005800178D0000DF950B0016FFA000DF1506
:1006D000DC065800DF95090016FFFF019625DF159F
:1006E0000E075800DF8B10FF178D0000A000DF956C
:1006F0000E0016FFDF950C0016FFDF950A0016FFAF
:10070000DF95080016FFDF15BEF258008700FF01D5
:10071000DF15AC073800F70970ED4486C1150001FC
:10072000C215800040101110C000400A1110867ED2
:100730001F8A1CFDDF9502002CFDDF95E8003EFDC1
:10074000F70928EDFF86C1150001C21500015F14ED
:1007500010FD837EF709E4ECFF861F8A2CFDDF1570
:100760006C073800DF95E4003EFDFF019625C09739
:100770001EFDDF15AC073800C0B50800FF03C0B58B
:100780000100FF02C1150001C2150001D12710FDB3
:10079000FF02847EF755001068F41F8A1CFDDF9568
:1007A00002002CFDDF15BEF238008700FF01C215E4
:1007B0000E00F709C8ED4390C2150E00C195550013
:1007C000F709D4EDC2150E00F709B2EDC1255500A9
:1007D0001802C2150E00C195AA00F709BAEDC2159C
:1007E0000E00F70998EDC125AA000B02C2150E00F4
:1007F000C190F709A2EDC2150E00F70980EDC1A066
:1008000001038700F7550020F8F3C2150D00F70922
:100810006CEDC1258000FF02C2150A00C1952000C1
:10082000F70974EDC2150A00F70952EDC1358000D1
:10083000F903C2150A00F70944EDC1358000F90239
:10084000DF151A0036FF8700F709C00CF709940C72
:10085000F7090E0CF709B0F2F7090EF2F709640870
:10086000F73500209CF310037708E4F15254433A23
:100870002000F7091606F709120D0402C1150E1320
:10088000F709BCF1F709E2F1F735001074F3090339
:100890007708BCF14944453A2000F709E606F70914
:1008A000C8F1F70986EA770000007708A2F1466FE1
:1008B000722068656C7020747970652048454C50D2
:1008C0000000F709A4F177000000DF451F0012FFC8
:1008D000DF55010012FFC615FEFCF7098CF1C015AB
:1008E0005000C11561FCC2152409F709CE10C515C9
:1008F00061FCF715000028F3F709600DF709120DE8
:100900000603C415261FC315961FF709C20FD5A5E8
:100910003B00F203F70B08F3E203F70A02F3C51DED
:1009200000F3EA013E3E3E00F709620D0503F709B8
:10093000DE0DF709380D0201C115FF7FCDA53B0083
:1009400003027710DAF202027700900CF70AD0F275
:10095000D58B7711CCF28700F709000D4111F7090B
:10096000DEF04510770002F1F709020DC115EE2007
:100970007700CCF0F709E40CF709960C0202770037
:100980005A0CF7091A0D1F874311C415B909F70945
:10099000A80E020277004201C510C415AE09F7097E
:1009A000980E02027700EE00C5107700CA00522AA6
:1009B000454749535445525300492A4E53545255C2
:1009C0004354494F4E00F709040D2486F7099E0C45
:1009D000F74507004EF2F75507004AF2F7094800BD
:1009E000C4150800C21D3CF2F7095000D20B047F69
:1009F000C4150800C21D2CF2F7094C00D20B047F6D
:100A0000F70966F0F76510001AF2F72D16F216F2E4
:100A1000E5838700F709560CF7090C00C21D04F2A4
:100A2000F7091800770042F0C11DF8F1F709AAEFA5
:100A3000C0152F00F709ACF0770022F0F709C2E8E3
:100A4000F70996EF770016F0F709B6E84010F709B6
:100A50000A004010C000F70902008700C04580FF6F
:100A6000F7095E0C0287C0152E00770076F0F709B3
:100A7000EA0BF7099C0B0F03F709520DF709EE0B70
:100A8000C215BA1FF709980D028777004E0BF709B8
:100A90001E007700D4EF020AC4150300F709100006
:100AA000F7090C00F7090800F709BEEF097F870076
:100AB000811CBA1FF7092A0EC0152F00F70924F070
:100AC000F7099AEF811C0EFCF7090EEFC2650200D0
:100AD000C0150900F7090CF08700F709F00BF709BA
:100AE0008C0BC41D3EF1C4450100F7090610F7093F
:100AF00078EF372130F1F9838700F709900B020274
:100B00007700D80AF709980B028777004800F709A1
:100B1000500CC13501001702771008F1F7095E0B80
:100B2000F7093E0CC21DFCF0F709E4E7F765020087
:100B3000F2F0F709260BC0A52C000202850AF0018D
:100B4000F7092A0B87007708B80A4F44442041442C
:100B5000445245535300F709740C4310F7091E0B18
:100B6000F709FE0B4410F709040BC110C215BA1F98
:100B7000F709AC0C02877700620A97201000030285
:100B8000C44510FF080197200C000587C4350100FB
:100B900002037700B0FF32110EFC8700F709BC0A90
:100BA000F7096E0A0903F709B80BF709C00AF70934
:100BB0003209771066F00201F7092809F7093C00AD
:100BC000F7090E00F7090409F745003036F0770001
:100BD0002EE5D72D44F0FFEF0982D72D3CF004001D
:100BE0000587F735010032F0010287007708120A05
:100BF000424144205553455220535000D72D1CF0FC
:100C0000FFEF0582F735010012F001028700770837
:100C1000F009424144205553455220504300F70902
:100C20003A0AF709EC090503F709E40AF7093E0A4D
:100C30000201C11501006610020277009E09F70942
:100C400090FFF709B6FFF7550020B8EFF745001001
:100C5000B2EFE61DC6EFF709A6E48415F709940E76
:100C6000F70906EECE0AEB02D60B8700F709FE095C
:100C7000F7095EFFF70984FFF755001086EFF74587
:100C8000002080EF770078E4F709E209F7093C08D3
:100C9000DF451F0012FFDF55010012FFF70944086E
:100CA000F70968088700F709E00AF709C009C225B3
:100CB00044440403C22544490C030D01F70986E6A8
:100CC00077083E09444556494345204552524F5204
:100CD000000077000609770876ED3F554E4B4E4FE2
:100CE000574E204445564943452000008010F709DF
:100CF0009CED7700D4FBC2150002C1150001F70975
:100D00002AE6F709840A6610E6150000F7097E094D
:100D10000303F709FA094E10F7095209C2254444A2
:100D2000DA02F7097CEACC86CE0B0202CE1500026D
:100D3000E6150000811D04008213C3150001C415CF
:100D40000002F70954E9BC86CE357F000D02C015BC
:100D50000D00F7098EED8113F709BCEC7708F0EC74
:100D600020424C4F434B53008E0AB6230200E287C9
:100D7000C0150D00F7096CED8113F7099AEC77089F
:100D8000CEEC20424C4F434B5300C6650600770023
:100D9000D8ECC4159E0DC315D40D7700320B564503
:100DA000522A53494F4E0042522A45414B504F4917
:100DB0004E54530054494D2A450044492A534B0090
:100DC000424F2A4F54004E5652004C5443004E5846
:100DD0004D000000C010FA0F660E780F4E129212EE
:100DE0008E11F211C415F00DC315120E7700E00A32
:100DF00042522A45414B504F494E54530054494D9D
:100E00002A4500424F2A4F54004C5443004E584D3F
:100E100000007210A80E0C124C11B811C415280E47
:100E2000C315420E7700A80A42522A45414B504F43
:100E3000494E54004D454D2A4F5259004E565200CE
:100E400000003E1012112E13C415540EC315620E6D
:100E500077007C0A4E5652004D454D2A4F5259009C
:100E6000000062131E14F7090408F735002092ED04
:100E70000403F70916007700F0EB770884074E4F5C
:100E80005420494E5354414C4C454400C3155AFC20
:100E9000F70936EA02867700BA0A7708B2EB4E4FB6
:100EA0005420534554008700C3155AFCF7091AEA29
:100EB000F7095C085390F709A207C0A53A0002039E
:100EC00077001807850AF70946085390F7098C0739
:100ED000C0A53A00F502850AF70934085390F709CE
:100EE00030073403F7099607F70924085390F709E8
:100EF0006A07C0A52D00E402850AF709D008C215CB
:100F0000D41FF7091A09DC86820C820A9390F7092C
:100F10004A07C0A52D00D402850AF709F207572019
:100F2000D007CE87C1253308CB87C1E5D0075390C2
:100F3000F7094A07F7099608C215EE1FF709E008F6
:100F4000BF86820C820A9390F7092207C3155AFCC8
:100F5000D7A41800B586D7A43C00B286D7A43C001D
:100F6000AF86D7A42000AC86C3155AFCF709EAE97E
:100F7000F70918FF7700F2EAF709F206F70904000B
:100F80007700E6EAF745001078EC370A9EECF7099F
:100F9000F8E42986C2150001F70950E52486C01D32
:100FA000D6F1C000C11DD2F1C100400C410C400C73
:100FB000410C400C410C400C410C400C410CC10B4D
:100FC0001203771066ECF755001036ECF7093AEA91
:100FD00077087CEA4D422000378A81F1C11536013D
:100FE000F7095CEA8700770866EA4E4F54204445CB
:100FF00054454354454400008700F7097006C41562
:101000003AFCF7550001FCEB01150A0326114410C8
:10101000F709E00AF70952EAF7450001E6EB841503
:1010200017214AFCF187F7350001D8EB0102870050
:101030007708CE054E4F4E45205345540000F70922
:101040001A06F709CC051303F7091607F7091E0658
:10105000C10B020277008405F709EC0302020C0AB7
:10106000870077089C054E4F542053455400770065
:10107000F003F709EC06F709F405C10B020277004B
:101080005A05C135010002037700BAFAF709B8031F
:10109000080277086C05414C52454144592053459C
:1010A00054004210010AF7099E030803770852050D
:1010B0005441424C452046554C4C00008C10870052
:1010C000F709AA05C1150004F70974E9C115320032
:1010D000F70936E9770878E92020434845434B5320
:1010E000554D2000C11D18DFF709EEE8770860E9CB
:1010F00020204255494C44200000C1155404F709F2
:101100003EE9F70964E9C1151504F70932E97700EA
:1011100058E9F7094605F709F804020277000CE2DE
:10112000F709AA05F7094605C11DF8EA5720FE0090
:101130000583C21DF0EA5720FFEF028377009C046D
:10114000C1450100C24501007700E8E1C41558110E
:10115000C3156011770078074F4E004F46460000D8
:1011600064117611F7090605F755000494EAC115D4
:10117000010077000C00F709F404F745000482EA47
:10118000010AC2151000F7090EE477001404F709EC
:10119000DC047708BAE84C54432069732000F73523
:1011A00000045EEA0303C11558110201C1155B1169
:1011B000F7098CE87700B2E8C4155811C315C411BB
:1011C00077000C07C811DA11F709A204F7550008D7
:1011D00030EAC115010077000C00F7099004F745CB
:1011E00000081EEA010AC2151100F709AAE37700F8
:1011F000B003F7097804770856E84E584D20697314
:101200002000F7350008FAE9770098FF4311C4156C
:101210008C12F70924060B03C510F7096C05C225CB
:1012200044440703C225444904037700A8FA020A8C
:10123000010AF7093804A610C2151400F7098A0339
:101240008115C2151200F709800377005403F709CE
:101250001C04C2151200F7095E03C10B0902C11577
:101260008C12F709DAE7DF151A0036FF7700FAE784
:101270004010F70918E8C2151400F7093A03F709F6
:1012800096E7DF151A0036FF7700DEE74E4F4E4532
:101290000000F709D803020A8110F7095CE7C015BE
:1012A0002F00F7093EE8F709B4E7F709D0E2F7099C
:1012B00048E7F709A8E7820AC2350F00F602F709E6
:1012C000A8E797208000E887770884E743484543EC
:1012D0004B53554D3D00F709920226100110F709B6
:1012E00018E7F70978E78115C100F7090CE7F70956
:1012F0009A020302C1150E130201C1151B13F7094F
:101300003EE7F70964E7DF151A0036FF8700204340
:101310004F4E54454E5453204F4B0020434F4E5494
:10132000454E545320494E56414C49440000F7095C
:101330003C03C2150E00C1950000F7095AE2820A6B
:1013400097208000F887C2150E00C195FF00F709AD
:1013500046E2C2150F00C1950100F7093AE2770095
:101360004002F7090803370ACCE8370ACAE8C21571
:101370000E008190F70920E2820A97208000F98709
:10138000C2150E00F709F6E142A00203B70AA8E869
:10139000820A97208000F687C2150E008110410A4C
:1013A000F709F4E1820A97208000F887C2150E0041
:1013B000F709CAE18150C1A5FF000203B70A78E826
:1013C000820A97208000F487F7090200D001C01537
:1013D0000D00F7090EE7770876E6504153532000D9
:1013E000F725FFFF50E80203B70A4AE8C11D46E8A7
:1013F000F70924E6F70B40E80C03770852E620468D
:1014000041494C55524553200000C11D2AE8F709B7
:1014100006E677083AE6202E2E2E00008700F70910
:101420004C02370A10E8370A0EE8870003150A0352
:1014300002150195F709E6DE820AC57E840AC445D5
:101440000100F40101158700C3154AFCC4153AFCDC
:101450004C200603D30BD40B17214AFCF987A400B8
:101460008700C4153AFC140A17214AFCFC87870040
:10147000F73500088EE71502C4153AFCC3154AFC7F
:1014800002150803F7097ADE5310C1150300F709A6
:101490007EDE0101D30B17214AFCF287F7550008C5
:1014A00062E78700F73500085AE70F03C4153AFCD6
:1014B000C3154AFCC11402150203F70952DE1721B5
:1014C0004AFCF887F74500083AE78700F70960E625
:1014D000E61712FF0500DF95C10016FF9F1512FFEA
:1014E000770024E6370A26E7370A24E7370A22E797
:1014F000370A20E7370A1EE7370A1CE7370A1EE7D4
:10150000F715FE0014E7370A12E78700C21504003A
:10151000D215BEF2D215E00097200201F987DF153F
:1015200002F20C00DF15A0F21C00DF15A6F2180075
:10153000DF159AF21000DF15B8F21400DF15B2F2D1
:101540000400DF15ACF208008700C215040081100A
:10155000C16502005210120A97200201F887DF15B8
:1015600002F20C00DF15E0000E008700000AC21531
:101570000E00F70908E04060C00C400B820A97207B
:101580007E00F787DF151A0036FF8700F709DCFFBA
:10159000C2157E00F7092000DF151A0036FF012072
:1015A0008700F709C6FFC2157E000110F7091A006F
:1015B000DF151A0036FF8700F709C2DF6610820ABE
:1015C000F709BADFC100815587006610F709C8DF47
:1015D000820A8115C100F709BEDF8700F7093200D2
:1015E0000103850A0D8AC0153F00F709F6E4C1150D
:1015F00061FCF7094AE4C0153F00F709E6E477000B
:10160000C8F2C0153F00F709DAE4F70932E47700C1
:10161000B8F24093C08B0603C0A53B000403C0A5ED
:10162000210001038700000A8700C0A520000603EF
:10163000C0A509000302C0952000B4008700F70987
:10164000D0FF050317A060000287C0E520008700D7
:10165000F709BEFF0203850AF2018700F709DEFFE2
:10166000F709C6FF0302F709E6FFFA018700F70949
:10167000EAFFF7099CFF0102870077005EFFF70988
:10168000BCFFF709A4FF0102870077004EFFF709AE
:10169000CAFFC00117A03A000286C0A52F0087002C
:1016A00017A038000286C0A52F00870017A05B0096
:1016B0000286C0A540008700F709F0FF0187EA0114
:1016C000870017A07F000286C0A51F008700F709CA
:1016D000900077104EE5F70982FFC0A52D000B02A0
:1016E000850AF7097C0077103CE5F72D38E534E5ED
:1016F0000787B1008700F71D2AE52AE5A1008700CA
:101700007708FEFE57524F4E47204F524445520035
:10171000A610010AF7450004EAE4F7093EFFC0A558
:101720002D000502F7550004DAE4F70922FFF70956
:1017300062FF02877700A4FE2610C2150A00F7098F
:1017400000E48015C0E530000160F70902FFF709E9
:1017500042FFF287F7350004AAE40103010B82156A
:101760008700010AF709F4FEF70934FF02877700C2
:101770006AFEC10CC10CC10CC0E530000160F70964
:10178000CEFEF7091AFFF5878700F709CEFE020A99
:10179000010AC200F709A6FEF70910FF02877700C9
:1017A0003AFEC0000250F709A6FEC235FF00F10361
:1017B000F7098AFEF709DCFE0486F70952FFF709EC
:1017C0007CFEC0253A000202F70984FE8700A610BD
:1017D000010AF70986FEF7091A00F7091600F7094A
:1017E000120006866610F7090A000186FC018115C1
:1017F00082158700C2152800F70946E3F7093EFE67
:10180000F70990FE0687F709A2FE01878700C0E569
:101810002E00C0E512000160F70934FEB100870018
:10182000A610CA0B07034A200203D20BFA0182E575
:10183000B1008700A100D60B8700F7091EFEF7450F
:101840001800C0E3CCA52A000402F7551000B4E349
:10185000840AF709E8FDF7095EFE1586CC8B0803BC
:1018600014A00303F75508009AE3F709E2FDEA0123
:10187000840AF709C8FDF7093EFE0386F709D0FD83
:10188000F801A4008700D48B0C03D48BFE02F7353B
:10189000080070E3F602F735100068E3F203B400C5
:1018A0008700F73508005CE3EC02F901E61500005B
:1018B0006611F70984FF0603CC8B06038513B60A6D
:1018C0000200F701B1000101A10084158415870011
:1018D000F709D8FF0287770002FDC40C0361C31229
:1018E0004B00A610C2152800F7096CE22610F70974
:1018F00066E226104010F709220080150203F7095E
:101900001A0080150203F709120082158700811260
:10191000F709CEFF811C0200E4028700172028008F
:101920000105000A009C2C197700B8E120414243D0
:101930004445464748494A4B4C4D4E4F50515253EF
:101940005455565758595A242E2530313233343590
:1019500036373839E610C194F709D4E0C0153A009B
:10196000F70980E1C194F709C6E0C0153A00F7090C
:1019700072E1C194F709B8E0F709E2E0C194F70910
:10198000AEE0C0152D00F7095AE1C1944160411C39
:10199000D21FF7094CFFC0152D00F70946E1C1948D
:1019A000C165D007F70970E0F709B2E0C194416062
:1019B000411CEC1FF7092AFF83158700B71048E286
:1019C000771046E2371044E2C11D3CE2F70970E0AF
:1019D000C21D36E2010AF7099C00F74500C024E267
:1019E000C00BF90317A020001087C0A57F002B03B0
:1019F000772018E20587C0150700F709E6E0EB013C
:101A00001290810AF70994E0E601C0A512001002C5
:101A1000F70988E00A8A6610F7094EE0C11DE8E17F
:101A2000F7091CE0C11DE2E1F70914E08115D301BB
:101A3000C0A515000502F70962E0F7092CE0C40112
:101A4000C0A508000702C10BD603F7092AE0C10AA6
:101A5000C20AC101C0A50D000803C0A50A00050304
:101A6000C0A51B00C802F70932E02610F709FADF0B
:101A700080150A8A8700F709A6E03A86C035000873
:101A80000602C04580FF3403C0A503000E02F745DF
:101A9000004070E1F74500806AE1C0150300F709D6
:101AA000FADFF709C4DF770020EEC0A50F001302AC
:101AB000F74500804EE1F735004048E10603F74561
:101AC000004040E1F709D4DF1301F709CEDFF755F5
:101AD000004030E10D01C0A513000402F75500805D
:101AE00022E10601C0A511000402F745008014E1BF
:101AF000000A87000111F709E0DEC0152F00F70981
:101B0000E2DFC0150900F709DADF0211F709F2D7A1
:101B1000D40B77101AE1C01D16E1C00CC00CC00038
:101B2000C045C0FF37100AE1E61D04E1F70B00E1F4
:101B30001680F7450080F8E0F7095800F38B9A1EED
:101B40000E80B715EAE0C110C10CC165F61C411248
:101B5000F7098EFDC0154200F70988DF1001B7159F
:101B6000CEE0F7092E00C210C20CC265F61CCA0BEB
:101B70000A03F70998FDF3350F009A1E0403C015F8
:101B80000900F7095EDFC11C9A1EC10CC145E1FFC7
:101B90007900A61BC3158A00F32D94E00E1E028661
:101BA000E30BFA018700B81CEE1CBA1B5A1C801C00
:101BB000BC1BCE1BC21B8C1C661C8700F709E600F1
:101BC0000201F7091400C0152C00F70916DFF79D74
:101BD0005EE05EE0F7C5C0FF58E0C29D54E0C2354C
:101BE00008000403C0154000F709F8DE97A01000B4
:101BF0005A8797A03000218697A01700140397A05A
:101C00001F00110397A020000487C0152D00F709BD
:101C1000D2DEF7097C0097A020000486C0152B00B7
:101C2000F709C0DE8700C0152300F709B6DE0211F0
:101C3000F709CED6D40B7700A0DD97A037000603B6
:101C400097A03F000303F709E4FF23010211F709FE
:101C5000B0D6D40B0161770080DDC11DD2DFC14554
:101C600000FF770074DDF7093C00C0152C00F70970
:101C700072DEC11DBADFC145C0FFC10C010B0301FB
:101C8000C19DACDFC10C016177004EDDC01DA0DF3E
:101C90000C01C0152800F7094ADEF7090800C01535
:101CA000290077003EDEC09D88DFC045F8FFC00CEC
:101CB000011CBA1F77002AFCC11D74DF810C048649
:101CC000C0154300F7091CDE810C0486C0155600C0
:101CD000F70910DE810C0486C0155A00F70904DEEE
:101CE000810C0486C0154E00F709F8DD8700C11D80
:101CF0003EDF7700E4DC3432007DF18F007DA97394
:101D00000000140F0000AC3A00005B716022B47355
:101D100000004052007D98400000B37300000000B6
:101D20000000E8590000A01400003B130000000070
:101D30000000887700003B770000597A800C500F34
:101D40000000B50E0000590D00009D0D0000740E3E
:101D50000000AC0D0000650E00008A410000B214C6
:101D6000000025150000733A0000CB1900004F5801
:101D70000000E3060000137700000C800000EA7208
:101D80000000E47200004A0900004409000000005D
:101D90000000947A000000000000AE530000D81448
:101DA0000000FC0D0000EB0D0000FB0D0000E40640
:101DB0000000000000006A980000000000001A798E
:101DC00000000C0F0000910E0000C90D00006F0E06
:101DD000C076F30F000003100000FB0C0000C90DDB
:101DE000C0760B0D00006F0E00005C210000D17F5B
:101DF0000064000000007054C076000000004052F3
:101E0000C076000000000A7A000000000000000018
:101E10000100020003000400050006000700400066
:101E200080008800A000A100AF00B000B100BF009A
:101E3000C0000001000200030004000500060007C6
:101E40000008000A400A800AC00A000B400B800B01
:101E5000C00B000C400C800CC00C000DC00D000E1F
:101E6000001000200030004000500060007000783A
:101E7000007A007E0080008100820083008400855B
:101E8000008600860087008700880089008A008D10
:101E9000408DC08D008E00E000F0020002000200C4
:101EA0000200020002000200020006000800010019
:101EB0000200000002000100000002000600040011
:101EC000040004000400040004000400050086006F
:101ED00086008600860086008600860086008600D2
:101EE000860086008600010006000100870087004A
:101EF0008700870087000700010005000100090036
:101F000004000400040004000400040004000400B1
:101F100004000400030003000100060001000600A5
:101F20000100070001005245502A45415400454335
:101F30002A484F00452A58414D494E450045520018
:101F4000454900442A45504F5349540044520047E4
:101F50004F0053542A455000432A4F4E54494E5582
:101F6000450052455345540053482A4F57005345A6
:101F70002A5400434C2A4541520054452A535400E8
:101F800048452A4C5000422A4F4F5400464F522A8F
:101F90004D41540000002809580974096E0ADA0AF4
:101FA000FA0A560B9C0B1E0C6C0C880C920DE40D5F
:101FB0001C0E480E6809A60CF60C30755875807515
:101FC000A875D075F87540797864F8660000B65E3B
:101FD000F05F0000B63E4A267A51D2088151D641C0
:101FE000D4418F0998774C5EEE59CB190000167AD0
:101FF000A6534D808C90557E5928FC760000C01564
:102000003F00F709DEDAC11DFCDBC10C411C2E20AC
:10201000F7092CDA770838DA204154200000C11D76
:10202000FADBF709B4D9F70940DA77009CE84620D3
:10203000E9206820D120A820BC20DC20E020E52079
:1020400056207E209420554E4B4E4F574E205245E1
:10205000535441525400554E4B4E4F574E20494E0B
:102060005445525255505400554E455850454354CE
:10207000454420425245414B504F494E5400554E25
:10208000455850454354454420542D42495420540A
:1020900052415000554E4558504543544544204EFA
:1020A000584D205452415000494C4C4547414C201A
:1020B000494E535452554354494F4E00524553458F
:1020C0005256454420494E535452554354494F4E5D
:1020D00000504F574552204641494C00454D540051
:1020E0005452415000494F540048414C5400455807
:1020F000414D494E4520414E44204445504F53499F
:102100005420434F4D4D414E44530D0A452020610C
:1021100061616161615B2D6262626262625D090997
:102120002D3E204578616D696E65206D656D6F721D
:102130007920696E206F6374616C20616E64204148
:10214000534349490D0A4549206161616161615B01
:102150002D6262626262625D09092D3E20446973EC
:10216000617373656D626C6520696E7374727563FB
:1021700074696F6E732066726F6D206D656D6F721E
:10218000790D0A4552205B72725D090909092D3EDD
:10219000204578616D696E65207265676973746545
:1021A000720D0A4420206161616161612062626296
:1021B0006262625B2C6363636363632C202E2E2E4A
:1021C0005D092D3E204465706F73697420646174ED
:1021D0006120696E206D656D6F72790D0A44522021
:1021E0007272207979797979790909092D3E20442B
:1021F00065706F736974206461746120696E206119
:102200002072656769737465720D0A0D0A42524542
:10221000414B504F494E5420434F4D4D414E445336
:102220000D0A4250206161616161610909092D3E19
:102230002053657420627265616B706F696E740DF6
:102240000A4252205B616161616161615D09090956
:102250002D3E2052656D6F766520627265616B70F0
:102260006F696E740D0A424C090909092D3E204C14
:1022700069737420627265616B706F696E74730D3F
:102280000A0D0A50524F4752414D20434F4E54526F
:102290004F4C20434F4D4D414E44530D0A53542053
:1022A0005B6161616161615D0909092D3E205374C3
:1022B00061727420757365722070726F6772616DE0
:1022C0000D0A43090909092D3E20436F6E74696E9A
:1022D000756520757365722070726F6772616D0D20
:1022E0000A5452205B6E6E6E6E5D0909092D3E2008
:1022F0005472616365206F6E65206F72206D6F721E
:102300006520696E737472756374696F6E287329C2
:102310000D0A4D52090909092D3E204D617374655E
:10232000722072657365740D0A0D0A4449534B207F
:10233000414E44205441504520434F4D4D414E4461
:10234000530D0A42205B64645D090909092D3E2092
:10235000426F6F7420494445206F722054553538C0
:102360000D0A0D0A4D495343454C4C414E454F55BE
:102370005320434F4D4D414E44530D0A56450909D4
:1023800009092D3E2053686F77206669726D776169
:1023900072652076657273696F6E0D0A61613B200C
:1023A00062623B2063633B206464202E2E2E090969
:1023B0002D3E20436F6D62696E65206D756C74698A
:1023C000706C6520636F6D6D616E64730D0A5250A1
:1023D000205B6E6E6E6E5D3B20413B20423B204396
:1023E0003B202E2E2E09092D3E205265706561740A
:1023F00020636F6D6D616E647320412C20422C2030
:10240000430D0A21616E7920746578742E2E2E0991
:1024100009092D3E20436F6D6D656E7420746578DB
:10242000740D0A0D0A5350454349414C204348411D
:10243000524143544552530D0A436F6E74726F6C90
:102440002D532028584F46462909092D3E20537503
:102450007370656E64207465726D696E616C206F57
:1024600075747075740D0A436F6E74726F6C2D51B4
:102470002028584F4E290909092D3E2052657375B1
:102480006D65207465726D696E616C206F75747016
:1024900075740D0A436F6E74726F6C2D4F090909C4
:1024A0002D3E205375707072657373207465726D64
:1024B000696E616C206F75747075740D0A436F6E70
:1024C00074726F6C2D430909092D3E2041626F72B1
:1024D000742063757272656E74206F7065726174BA
:1024E000696F6E0D0A436F6E74726F6C2D482028F1
:1024F0004261636B73706163652909092D3E204455
:10250000656C65746520746865206C617374206304
:10251000686172616374657220656E74657265646A
:102520000D0A5255424F5554202844656C65746518
:10253000290909092D3E2044656C6574652074687D
:1025400065206C6173742063686172616374657285
:1025500020656E74657265640D0A436F6E74726FE8
:102560006C2D520909092D3E205265747970652041
:102570007468652063757272656E74206C696E652F
:102580000D0A436F6E74726F6C2D550909092D3E4B
:102590002045726173652063757272656E74206C7C
:1025A000696E650D0A0D0A000000000000000000C1
:1025B000000000000000000000000000000000001B
:1025C000000000000000000000000000000000000B
:1025D00000000000000000000000000000000000FB
:1025E00000000000000000000000000000000000EB
:10F0000074F132005F0054F05F0042FB5F0058FB78
:10F010005F0008FB5F0038FB5F0020FB5F00E4FA45
:10F020005F0040FA5F000AFA5F00DAF95F00ECF473
:10F030005F008AF45F001CF55F0008F65F00A2F72E
:10F040005F0046F65F009AF65F0046F35F00CAF87D
:10F050005F005AF9178DE0001F0A60FF1F0A62FF68
:10F060001F0A66FFDF95C10016FFDF451F0012FF74
:10F07000DF550E0012FFC01500FCC115AAAA5010E2
:10F08000410A172000FDFB02C01500FC4820FF02CA
:10F09000100A410A172000FDF9021F0A60FFDF4530
:10F0A0001F0012FFDF550D0012FFC0150004010AFA
:10F0B0000164172000FCFC027710440BDF451F00A1
:10F0C00012FFDF550C0012FFDF15400060FF000A41
:10F0D0000810D00B172000F0FB02000A0820FF02E6
:10F0E000100A172000F0FA02DF451F0012FFDF555B
:10F0F0000B0012FF1F0A60FFC615FEFC5F006604CE
:10F10000F7092C0A26106610A610E61026116611C3
:10F11000B711140B370AEE0AF7451000000BDF1584
:10F1200002F20C00DF15E0000E00F7350030D40AC3
:10F130000403F7551000E60A0201F7093223DF1530
:10F14000400060FFDF451F0012FFDF55100012FF77
:10F15000C01DBA0AC11DB80AC21DB60AC31DB40A31
:10F16000C41DB20AC51DB00AC61DAE0AE61DAE0A10
:10F17000E61DA80A1F0A66FFF7350004840A030388
:10F18000DF15400066FF1F0A62FFF7350008720AAC
:10F190000303DF15400062FF06003710700A771086
:10F1A0006E0AB7106C0AF7106A0A3711680A7711ED
:10F1B000660AB715740AB715620AB715600AB7115F
:10F1C000580AC61D620A972161FC03839721FEFC41
:10F1D0001083C615FEFCE615CA08E6150000E61504
:10F1E0000000E6150000E6150000E6150000E61533
:10F1F00000008515841583158215811580157F0003
:10F20000280A1F0A62FFDF95C10016FFDF95010083
:10F2100012FFF70984FF1F0A60FFF7350010E409A9
:10F220000503F7450030DC097700D4FEF7350020F0
:10F23000D20901038700F7351000E2090503F7152D
:10F240000A00C2097700A200F7350008B6090603D4
:10F25000C11DC809E10BF709EE210503F7150200EE
:10F26000A409770084007710B209F7093622F7095C
:10F270009608F709F4077708D60725425245414B0F
:10F28000504F494E542041542000C11D8E09F709AA
:10F290004807F709D4077700D007E61508001701DB
:10F2A000E61507001401E61506001101E615050034
:10F2B0000E01E61504000B01E615030008011F0A04
:10F2C00062FFF73500803A09FF02E61509001F0AC0
:10F2D00062FFDF95C10016FFDF95010012FFB71531
:10F2E0002409F709B4FE1F0A60FFF7350008140966
:10F2F0000203F709AE21F7090E08F7096C0777003A
:10F30000FC2CDF15400060FF81121F0A60FF8700A0
:10F31000DF15400060FF4A101F0A60FF8700DF15FD
:10F32000400060FF4A901F0A60FF8700C11500017E
:10F33000C215FFEFDF15400060FF110A4220FD8378
:10F340001F0A60FF87007710EA08F709540409864E
:10F35000C11DE008020A030AC4150002F709E6020B
:10F3600001878700DF25A00000001202F709742141
:10F37000F71540FD9A08F71DBA089208370A9C084D
:10F38000F71500109408F715E000920877002C1884
:10F390007708BC063F4E4F5420424F4F5441424CD9
:10F3A0004500F709C406F709622177001C15000023
:10F3B000000000000000000000000000000000004D
:10F3C000000000000000000000000000000000003D
:10F3D000000000000000000000000000000000002D
:10F3E000000000000000000000000000000000001D
:10F3F000000000000000000000000000000000000D
:10F400005F0054F0DF35800062FF0402E615010062
:10F410007700BAFE1F0A62FFF7350008E40704020E
:10F42000E6150B007700A6FE1F0A62FFDF154000FD
:10F4300062FFE6170600E6170400020066102610B9
:10F44000E6150200C11556C7C0971EFDC0358000E5
:10F450000802C03540000503B100811580158115F3
:10F4600087004E7ECE0AEE02A100F701C0971EFD76
:10F47000C0358000FB02C03501000502C035080020
:10F48000F503B1008700A10087001F8A1CFDDF95EE
:10F49000550014FDDF95AA0016FDDF95F00018FD5C
:10F4A000DF950F001AFDDFA5550014FD0C02DFA546
:10F4B000AA0016FD0802DFA5F00018FD0402DFA572
:10F4C0000F001AFD0203A1008700DF9504002CFD48
:10F4D000A000A000A000A000DF9502002CFD1F8A64
:10F4E0001CFDDF9502002CFD770050FFF7094CFF53
:10F4F0001486DF15EC003EFDF70970FF0E86E61757
:10F5000060FFDF15400060FFC0150001CA1710FD45
:10F51000D200047E9F1560FFB1008700F735001010
:10F52000E0060202A1008700F70910FFFB86F70939
:10F530002800DF9520003EFDF70930FFF386E6172F
:10F5400060FFDF15400060FFC0150001D21710FDFD
:10F55000037E9F1560FFB1008700DF95010014FD59
:10F560001F9016FDC0001F9018FD5F901AFDC1008E
:10F57000C14D7C0AC15540005F901CFD8700A6105C
:10F58000C20CC24501FF9F1036FFC11730FF810C2E
:10F59000C14500FF82158700A6106610C20CC24547
:10F5A00001FF9F1036FFC10C5F1032FF81158215DD
:10F5B00087000000000000000000000000000000C4
:10F5C000000000000000000000000000000000003B
:10F5D000000000000000000000000000000000002B
:10F5E000000000000000000000000000000000001B
:10F5F000000000000000000000000000000000000B
:10F600005F0054F05F0004F4F7350010F4050202C7
:10F61000A1008700F70924FEFB86F7093CFFDF9570
:10F6200030003EFDF70944FEF386E61760FFDF1564
:10F63000400060FFC01500019F1410FD037E9F1560
:10F6400060FF7700F6FDE61760FFDF15400060FF02
:10F65000C0150200F7099E00F7093002F709B4014E
:10F660001486C0A501001502F709A8010E86C04541
:10F6700000FF0510F7099C010886C40B01031390D5
:10F68000C40A487FF7092202E7879F1560FFA1009F
:10F6900087009F1560FF7700B800E61760FFDF1551
:10F6A000400060FFC0150300F7094A00F709640134
:10F6B0001E86C0A510001B02F709D001C0950100ED
:10F6C000F7098601C515800044210183051144E135
:10F6D0004011F7097401C094F7096E01447FF709DE
:10F6E000B601C40BE3029F1560FF77005A009F1517
:10F6F00060FFA10087002610F7099001C0150200E5
:10F70000F7094601C0150A00F7093E018015F709FF
:10F710003801000AF70932014010F7092C01000AEC
:10F72000F7092601F70928010011F7091C0100114A
:10F73000C000F70914018010F7090E018010C00005
:10F74000F709060177005001F7094001F709C400E5
:10F750002686C0A502002302F709B8002086C0A5AE
:10F760000A001D02F709AC001A86C0A54000170266
:10F77000F709A00014860110F709A6001086F70902
:10F78000A0000D86F7099A000A86F70994000786FB
:10F79000F7091601048640900281B1008700A1009C
:10F7A0008700C1150800DF153A0044FDDF55010050
:10F7B00044FDC2150800000AF7098200847EDF8B31
:10F7C00044FDFD80DF45010044FDDF8B42FDC01597
:10F7D0000400F7096800F7096400F709100017A092
:10F7E00010000303607EA1008700B1008700E615CA
:10F7F0001400C015DC23DF8B40FD0680C01742FDDE
:10F800000681D60BB10087000A7ECE0AF202D60B23
:10F81000A1008700F709D6FF0386F7093E00B10073
:10F820008700F709EEFF09862610F709E6FF048630
:10F83000C0008055B1008700D60BA1008700DF8B88
:10F8400044FDFD801F9046FD8700F7090E00F7017B
:10F850002610F709F4FF8015C000F701C04500FF2E
:10F86000F73500029E030A03C0003760C003770B20
:10F87000BC03C000F74500028A0387003760AE036F
:10F88000770BAA03F75500027A038700370A9E0315
:10F89000F74500026E038700C01D9203F7099EFF23
:10F8A000C01D8A03C000770094FFF70940FF0B8654
:10F8B00037A07A030802F70934FF058637A06F03E3
:10F8C0000202B1008700A1008700F7350020320353
:10F8D0000202A1008700C2150A00F709A0FCC14579
:10F8E0008FFFC1252000F502C2150B00C1350200B3
:10F8F000F002C1350400ED02C2150A00F7097EFCD2
:10F90000C1358000F902E610C2150400F7096EFC4B
:10F910005390C2150200F70964FC5390C215000011
:10F92000F7095AFC5390C2150700F70950FC539091
:10F93000C2150800F70946FC5390C2150900F709E3
:10F940003CFC5390C2150600F70932FC5390DF15BA
:10F950001A0036FF8315B1008700F7350020A20298
:10F96000B803C2150A00C1952000F7092AFCC21588
:10F970000B00C1958600F7091EFCE610C2150400B5
:10F98000C194F70912FCC2150200C194F70908FCE2
:10F99000C2150000C194F709FEFBC2150700C1940F
:10F9A000F709F4FBC2150800C194F709EAFBC21578
:10F9B0000900C194F709E0FBC2150600C194F709DC
:10F9C000D6FBC2150B00C1950700F709CAFBDF156E
:10F9D0001A0036FF8315B1008700A610C215060075
:10F9E000000A410C400CF7097A00000A410C400C57
:10F9F000410C400C8A7E82158700A610C2150300B8
:10FA0000C100000A410C400CEC01C10B0504C015FB
:10FA10002D00F709CE00010BC2150A00F7093801C5
:10FA20002610C10B0203F709EEFF801577003400A2
:10FA3000C1250A00F183C0153000F709A600EC01CA
:10FA4000C10B050340940303F7099800FB018700ED
:10FA5000F709ECFFC13501000103810A8100C015DF
:10FA600020004001C06530003D01C0150D00F709C0
:10FA70007200C0150A003601C0150800F7096400BD
:10FA8000C0152000F7095C00C01508002B012610E6
:10FA9000F70908008015C000770000002610C04557
:10FAA00080FF1E03C0A57F001B03C0A5090016032D
:10FAB000C0A50D001303C0A50A001003C0A51B00BC
:10FAC0000302C01524000A0117A020000786C015F4
:10FAD0005E00F7090E008013C0654000F7090400BE
:10FAE000801587002610F7098C1FF7350040140198
:10FAF0000902F73500800C01F6028013C04580FF33
:10FB0000F709340080158700DF0B72FF1F0A76FFAC
:10FB1000D7152A0074FF1F0A70FF000A017E8700B4
:10FB2000A100DF8B70FF0380C01772FFB100870058
:10FB3000DF8B74FFFD808700F709F4FF1F9076FFCD
:10FB40008700000AA100020C01864060A100410C60
:10FB5000C20BF80201108700E6151100000AA1008F
:10FB6000410CCE0A0803400C80E00205B100F80108
:10FB70008060A100F501D60B8700000000000000A6
:10FB80000000000000000000000000000000000075
:10FB90000000000000000000000000000000000065
:10FBA0000000000000000000000000000000000055
:10FBB0000000000000000000000000000000000045
:00000001FF
